{
    "_format": "hh-sol-artifact-1",
    "contractName": "ERC20Factory",
    "sourceName": "contracts/factory/ERC20Factory.sol",
    "abi": [
        {
            "inputs": [
                {
                    "internalType": "address",
                    "name": "_deployer",
                    "type": "address"
                }
            ],
            "stateMutability": "nonpayable",
            "type": "constructor"
        },
        {
            "inputs": [],
            "name": "AccessControlBadConfirmation",
            "type": "error"
        },
        {
            "inputs": [
                {
                    "internalType": "address",
                    "name": "account",
                    "type": "address"
                },
                {
                    "internalType": "bytes32",
                    "name": "neededRole",
                    "type": "bytes32"
                }
            ],
            "name": "AccessControlUnauthorizedAccount",
            "type": "error"
        },
        {
            "anonymous": false,
            "inputs": [
                {
                    "indexed": false,
                    "internalType": "address",
                    "name": "_sender",
                    "type": "address"
                },
                {
                    "indexed": false,
                    "internalType": "address",
                    "name": "_contract",
                    "type": "address"
                },
                {
                    "indexed": false,
                    "internalType": "bytes32",
                    "name": "_type",
                    "type": "bytes32"
                },
                {
                    "indexed": false,
                    "internalType": "uint256",
                    "name": "_id",
                    "type": "uint256"
                }
            ],
            "name": "EventCreateContract",
            "type": "event"
        },
        {
            "anonymous": false,
            "inputs": [
                {
                    "indexed": true,
                    "internalType": "bytes32",
                    "name": "role",
                    "type": "bytes32"
                },
                {
                    "indexed": true,
                    "internalType": "bytes32",
                    "name": "previousAdminRole",
                    "type": "bytes32"
                },
                {
                    "indexed": true,
                    "internalType": "bytes32",
                    "name": "newAdminRole",
                    "type": "bytes32"
                }
            ],
            "name": "RoleAdminChanged",
            "type": "event"
        },
        {
            "anonymous": false,
            "inputs": [
                {
                    "indexed": true,
                    "internalType": "bytes32",
                    "name": "role",
                    "type": "bytes32"
                },
                {
                    "indexed": true,
                    "internalType": "address",
                    "name": "account",
                    "type": "address"
                },
                {
                    "indexed": true,
                    "internalType": "address",
                    "name": "sender",
                    "type": "address"
                }
            ],
            "name": "RoleGranted",
            "type": "event"
        },
        {
            "anonymous": false,
            "inputs": [
                {
                    "indexed": true,
                    "internalType": "bytes32",
                    "name": "role",
                    "type": "bytes32"
                },
                {
                    "indexed": true,
                    "internalType": "address",
                    "name": "account",
                    "type": "address"
                },
                {
                    "indexed": true,
                    "internalType": "address",
                    "name": "sender",
                    "type": "address"
                }
            ],
            "name": "RoleRevoked",
            "type": "event"
        },
        {
            "anonymous": false,
            "inputs": [
                {
                    "indexed": false,
                    "internalType": "address",
                    "name": "withdrawAddress",
                    "type": "address"
                },
                {
                    "indexed": false,
                    "internalType": "uint256",
                    "name": "amount",
                    "type": "uint256"
                }
            ],
            "name": "TransferFund",
            "type": "event"
        },
        {
            "stateMutability": "payable",
            "type": "fallback"
        },
        {
            "inputs": [],
            "name": "ADMIN",
            "outputs": [
                {
                    "internalType": "bytes32",
                    "name": "",
                    "type": "bytes32"
                }
            ],
            "stateMutability": "view",
            "type": "function"
        },
        {
            "inputs": [],
            "name": "DEFAULT_ADMIN_ROLE",
            "outputs": [
                {
                    "internalType": "bytes32",
                    "name": "",
                    "type": "bytes32"
                }
            ],
            "stateMutability": "view",
            "type": "function"
        },
        {
            "inputs": [],
            "name": "OWNER",
            "outputs": [
                {
                    "internalType": "bytes32",
                    "name": "",
                    "type": "bytes32"
                }
            ],
            "stateMutability": "view",
            "type": "function"
        },
        {
            "inputs": [
                {
                    "internalType": "address",
                    "name": "",
                    "type": "address"
                },
                {
                    "internalType": "uint256",
                    "name": "",
                    "type": "uint256"
                }
            ],
            "name": "contractByUser",
            "outputs": [
                {
                    "internalType": "address",
                    "name": "_owner",
                    "type": "address"
                },
                {
                    "internalType": "address",
                    "name": "_contractAddress",
                    "type": "address"
                },
                {
                    "internalType": "bytes32",
                    "name": "_type",
                    "type": "bytes32"
                },
                {
                    "internalType": "uint256",
                    "name": "_id",
                    "type": "uint256"
                }
            ],
            "stateMutability": "view",
            "type": "function"
        },
        {
            "inputs": [
                {
                    "internalType": "string",
                    "name": "_name",
                    "type": "string"
                },
                {
                    "internalType": "string",
                    "name": "_symbol",
                    "type": "string"
                }
            ],
            "name": "createERC20",
            "outputs": [
                {
                    "internalType": "address",
                    "name": "",
                    "type": "address"
                }
            ],
            "stateMutability": "payable",
            "type": "function"
        },
        {
            "inputs": [
                {
                    "internalType": "bytes32",
                    "name": "_type",
                    "type": "bytes32"
                }
            ],
            "name": "getPriceByType",
            "outputs": [
                {
                    "internalType": "uint256",
                    "name": "",
                    "type": "uint256"
                }
            ],
            "stateMutability": "view",
            "type": "function"
        },
        {
            "inputs": [
                {
                    "internalType": "bytes32",
                    "name": "role",
                    "type": "bytes32"
                }
            ],
            "name": "getRoleAdmin",
            "outputs": [
                {
                    "internalType": "bytes32",
                    "name": "",
                    "type": "bytes32"
                }
            ],
            "stateMutability": "view",
            "type": "function"
        },
        {
            "inputs": [
                {
                    "internalType": "bytes32",
                    "name": "role",
                    "type": "bytes32"
                },
                {
                    "internalType": "address",
                    "name": "account",
                    "type": "address"
                }
            ],
            "name": "grantRole",
            "outputs": [],
            "stateMutability": "nonpayable",
            "type": "function"
        },
        {
            "inputs": [
                {
                    "internalType": "bytes32",
                    "name": "role",
                    "type": "bytes32"
                },
                {
                    "internalType": "address",
                    "name": "account",
                    "type": "address"
                }
            ],
            "name": "hasRole",
            "outputs": [
                {
                    "internalType": "bool",
                    "name": "",
                    "type": "bool"
                }
            ],
            "stateMutability": "view",
            "type": "function"
        },
        {
            "inputs": [
                {
                    "internalType": "address",
                    "name": "",
                    "type": "address"
                }
            ],
            "name": "mapByUserLength",
            "outputs": [
                {
                    "internalType": "uint256",
                    "name": "",
                    "type": "uint256"
                }
            ],
            "stateMutability": "view",
            "type": "function"
        },
        {
            "inputs": [
                {
                    "internalType": "bytes32",
                    "name": "",
                    "type": "bytes32"
                }
            ],
            "name": "priceByType",
            "outputs": [
                {
                    "internalType": "uint256",
                    "name": "",
                    "type": "uint256"
                }
            ],
            "stateMutability": "view",
            "type": "function"
        },
        {
            "inputs": [
                {
                    "internalType": "bytes32",
                    "name": "role",
                    "type": "bytes32"
                },
                {
                    "internalType": "address",
                    "name": "callerConfirmation",
                    "type": "address"
                }
            ],
            "name": "renounceRole",
            "outputs": [],
            "stateMutability": "nonpayable",
            "type": "function"
        },
        {
            "inputs": [
                {
                    "internalType": "bytes32",
                    "name": "role",
                    "type": "bytes32"
                },
                {
                    "internalType": "address",
                    "name": "account",
                    "type": "address"
                }
            ],
            "name": "revokeRole",
            "outputs": [],
            "stateMutability": "nonpayable",
            "type": "function"
        },
        {
            "inputs": [
                {
                    "internalType": "bytes32",
                    "name": "_type",
                    "type": "bytes32"
                },
                {
                    "internalType": "uint256",
                    "name": "_newPrice",
                    "type": "uint256"
                }
            ],
            "name": "setPriceByContractType",
            "outputs": [],
            "stateMutability": "nonpayable",
            "type": "function"
        },
        {
            "inputs": [
                {
                    "internalType": "bytes4",
                    "name": "interfaceId",
                    "type": "bytes4"
                }
            ],
            "name": "supportsInterface",
            "outputs": [
                {
                    "internalType": "bool",
                    "name": "",
                    "type": "bool"
                }
            ],
            "stateMutability": "view",
            "type": "function"
        },
        {
            "inputs": [
                {
                    "internalType": "address",
                    "name": "_withdrawAddress",
                    "type": "address"
                },
                {
                    "internalType": "uint256",
                    "name": "_amount",
                    "type": "uint256"
                }
            ],
            "name": "transferFund",
            "outputs": [],
            "stateMutability": "nonpayable",
            "type": "function"
        },
        {
            "stateMutability": "payable",
            "type": "receive"
        }
    ],
    "bytecode": "0x608060405234801562000010575f80fd5b5060405162002011380380620020118339810160408190526200003391620001a8565b6200004d5f8051602062001fd183398151915280620000b2565b620000755f8051602062001ff18339815191525f8051602062001fd1833981519152620000b2565b6200008f5f8051602062001fd183398151915282620000fc565b50620000aa5f8051602062001ff183398151915282620000fc565b5050620001d7565b5f82815260208190526040808220600101805490849055905190918391839186917fbd79b86ffe0ab8e8776151514217cd7cacd52c909f66475c3af44e129f0b00ff9190a4505050565b5f828152602081815260408083206001600160a01b038516845290915281205460ff166200019f575f838152602081815260408083206001600160a01b03861684529091529020805460ff19166001179055620001563390565b6001600160a01b0316826001600160a01b0316847f2f8788117e7eff1d82e926ec794901d17c78024a50270940304540a733656f0d60405160405180910390a4506001620001a2565b505f5b92915050565b5f60208284031215620001b9575f80fd5b81516001600160a01b0381168114620001d0575f80fd5b9392505050565b611dec80620001e55f395ff3fe608060405260043610620000fe575f3560e01c80638f00c962116200008e578063a2bdba6b116200005c578063a2bdba6b1462000306578063d547741f146200038d578063d5aba93a14620003b1578063e2dc35e014620003e057005b80638f00c962146200029257806391d1485414620002a9578063962907d814620002cd578063a217fddf14620002f157005b80632a0acc6a11620000cc5780632a0acc6a14620001e65780632f2ff15d146200021b57806335db770f146200023f57806336568abe146200026e57005b806301ffc9a71462000108578063117803e314620001415780631ede7b9c1462000185578063248a9ca314620001b457005b366200010657005b005b34801562000114575f80fd5b506200012c6200012636600462000993565b62000404565b60405190151581526020015b60405180910390f35b3480156200014d575f80fd5b50620001767f6270edb7c868f86fda4adedba75108201087268ea345934db8bad688e1feb91b81565b60405190815260200162000138565b34801562000191575f80fd5b5062000176620001a3366004620009c3565b5f9081526003602052604090205490565b348015620001c0575f80fd5b5062000176620001d2366004620009c3565b5f9081526020819052604090206001015490565b348015620001f2575f80fd5b50620001767fdf8b4c520ffe197c5343c6f5aec59570151ef9a492f2c624fd45ddde6135ec4281565b34801562000227575f80fd5b506200010662000239366004620009f7565b6200043b565b3480156200024b575f80fd5b50620001766200025d366004620009c3565b60036020525f908152604090205481565b3480156200027a575f80fd5b50620001066200028c366004620009f7565b62000469565b62000106620002a336600462000ac9565b620004a4565b348015620002b5575f80fd5b506200012c620002c7366004620009f7565b6200068d565b348015620002d9575f80fd5b5062000106620002eb36600462000b30565b620006b5565b348015620002fd575f80fd5b50620001765f81565b34801562000312575f80fd5b50620003616200032436600462000b51565b600160208181525f9384526040808520909152918352912080549181015460028201546003909201546001600160a01b0393841693909116919084565b604080516001600160a01b03958616815294909316602085015291830152606082015260800162000138565b34801562000399575f80fd5b5062000106620003ab366004620009f7565b6200072b565b348015620003bd575f80fd5b5062000176620003cf36600462000b7c565b60026020525f908152604090205481565b348015620003ec575f80fd5b5062000106620003fe36600462000b51565b62000753565b5f6001600160e01b03198216637965db0b60e01b14806200043557506301ffc9a760e01b6001600160e01b03198316145b92915050565b5f82815260208190526040902060010154620004578162000833565b62000463838362000842565b50505050565b6001600160a01b0381163314620004935760405163334bd91960e11b815260040160405180910390fd5b6200049f8282620008d7565b505050565b64045524332360dc1b5f5260036020527fcd1028ebe7da47fa910c847bb4aec1952bb7eaca18a1e4bee392a9a8570f227654349033908210156200051b5760405162461bcd60e51b81526020600482015260096024820152686c6f7720707269636560b81b60448201526064015b60405180910390fd5b6001600160a01b0381165f908152600260205260408120549081620005408162000b98565b925090505f868685604051620005569062000985565b620005649392919062000c02565b604051809103905ff0801580156200057e573d5f803e3d5ffd5b50604080516080810182526001600160a01b03808816808352818516602080850191825264045524332360dc1b858701908152606086018a81525f85815260018085528982208d8352855289822089518154908a166001600160a01b0319918216178255965191810180549290991691909616179096559051600280850191909155905160039093019290925591835290528290208590559051919250907f4b64e2d8252a7bf4e4333f50822844196e39d556f40e0eab48f08cb6af2892d9906200067b908790859087906001600160a01b03938416815291909216602082015264045524332360dc1b6040820152606081019190915260800190565b60405180910390a15050505050505050565b5f918252602082815260408084206001600160a01b0393909316845291905290205460ff1690565b620006e17fdf8b4c520ffe197c5343c6f5aec59570151ef9a492f2c624fd45ddde6135ec42336200068d565b6200071a5760405162461bcd60e51b81526020600482015260086024820152673737ba20b236b4b760c11b604482015260640162000512565b5f9182526003602052604090912055565b5f82815260208190526040902060010154620007478162000833565b620004638383620008d7565b6200077f7fdf8b4c520ffe197c5343c6f5aec59570151ef9a492f2c624fd45ddde6135ec42336200068d565b620007b85760405162461bcd60e51b81526020600482015260086024820152673737ba20b236b4b760c11b604482015260640162000512565b6040516001600160a01b0383169082156108fc029083905f818181858888f19350505050158015620007ec573d5f803e3d5ffd5b50604080516001600160a01b0384168152602081018390527f189c727c18e1bfd597dc8b950156a62895d9ac087e0edb4077b4ba90eea06100910160405180910390a15050565b6200083f813362000944565b50565b5f6200084f83836200068d565b620008cf575f838152602081815260408083206001600160a01b03861684529091529020805460ff19166001179055620008863390565b6001600160a01b0316826001600160a01b0316847f2f8788117e7eff1d82e926ec794901d17c78024a50270940304540a733656f0d60405160405180910390a450600162000435565b505f62000435565b5f620008e483836200068d565b15620008cf575f838152602081815260408083206001600160a01b0386168085529252808320805460ff1916905551339286917ff6391f5c32d9c69d2a47ea670b442974b53935d1edc7fd64eb21e047a839171b9190a450600162000435565b6200095082826200068d565b620009815760405163e2517d3f60e01b81526001600160a01b03821660048201526024810183905260440162000512565b5050565b6111738062000c4483390190565b5f60208284031215620009a4575f80fd5b81356001600160e01b031981168114620009bc575f80fd5b9392505050565b5f60208284031215620009d4575f80fd5b5035919050565b80356001600160a01b0381168114620009f2575f80fd5b919050565b5f806040838503121562000a09575f80fd5b8235915062000a1b60208401620009db565b90509250929050565b634e487b7160e01b5f52604160045260245ffd5b5f82601f83011262000a48575f80fd5b813567ffffffffffffffff8082111562000a665762000a6662000a24565b604051601f8301601f19908116603f0116810190828211818310171562000a915762000a9162000a24565b8160405283815286602085880101111562000aaa575f80fd5b836020870160208301375f602085830101528094505050505092915050565b5f806040838503121562000adb575f80fd5b823567ffffffffffffffff8082111562000af3575f80fd5b62000b018683870162000a38565b9350602085013591508082111562000b17575f80fd5b5062000b268582860162000a38565b9150509250929050565b5f806040838503121562000b42575f80fd5b50508035926020909101359150565b5f806040838503121562000b63575f80fd5b62000b6e83620009db565b946020939093013593505050565b5f6020828403121562000b8d575f80fd5b620009bc82620009db565b5f6001820162000bb657634e487b7160e01b5f52601160045260245ffd5b5060010190565b5f81518084525f5b8181101562000be35760208185018101518683018201520162000bc5565b505f602082860101526020601f19601f83011685010191505092915050565b606081525f62000c16606083018662000bbd565b828103602084015262000c2a818662000bbd565b91505060018060a01b038316604083015294935050505056fe608060405234801562000010575f80fd5b5060405162001173380380620011738339810160408190526200003391620002d7565b82826003620000438382620003ea565b506004620000528282620003ea565b505050620000755f8051602062001113833981519152806200011f60201b60201c565b6200009d5f80516020620011338339815191525f80516020620011138339815191526200011f565b620000c55f80516020620011538339815191525f80516020620011138339815191526200011f565b620000df5f80516020620011138339815191528262000169565b50620000fa5f80516020620011338339815191528262000169565b50620001155f80516020620011538339815191528262000169565b50505050620004b2565b5f82815260056020526040808220600101805490849055905190918391839186917fbd79b86ffe0ab8e8776151514217cd7cacd52c909f66475c3af44e129f0b00ff9190a4505050565b5f8281526005602090815260408083206001600160a01b038516845290915281205460ff1662000210575f8381526005602090815260408083206001600160a01b03861684529091529020805460ff19166001179055620001c73390565b6001600160a01b0316826001600160a01b0316847f2f8788117e7eff1d82e926ec794901d17c78024a50270940304540a733656f0d60405160405180910390a450600162000213565b505f5b92915050565b634e487b7160e01b5f52604160045260245ffd5b5f82601f8301126200023d575f80fd5b81516001600160401b03808211156200025a576200025a62000219565b604051601f8301601f19908116603f0116810190828211818310171562000285576200028562000219565b81604052838152602092508683858801011115620002a1575f80fd5b5f91505b83821015620002c45785820183015181830184015290820190620002a5565b5f93810190920192909252949350505050565b5f805f60608486031215620002ea575f80fd5b83516001600160401b038082111562000301575f80fd5b6200030f878388016200022d565b9450602086015191508082111562000325575f80fd5b5062000334868287016200022d565b604086015190935090506001600160a01b038116811462000353575f80fd5b809150509250925092565b600181811c908216806200037357607f821691505b6020821081036200039257634e487b7160e01b5f52602260045260245ffd5b50919050565b601f821115620003e5575f81815260208120601f850160051c81016020861015620003c05750805b601f850160051c820191505b81811015620003e157828155600101620003cc565b5050505b505050565b81516001600160401b0381111562000406576200040662000219565b6200041e816200041784546200035e565b8462000398565b602080601f83116001811462000454575f84156200043c5750858301515b5f19600386901b1c1916600185901b178555620003e1565b5f85815260208120601f198616915b82811015620004845788860151825594840194600190910190840162000463565b5085821015620004a257878501515f19600388901b60f8161c191681555b5050505050600190811b01905550565b610c5380620004c05f395ff3fe608060405234801561000f575f80fd5b5060043610610148575f3560e01c806336568abe116100bf578063a217fddf11610079578063a217fddf146102d9578063a9059cbb146102e0578063b7ecbaae146102f3578063d539139314610306578063d547741f1461032d578063dd62ed3e14610340575f80fd5b806336568abe14610268578063415665851461027b57806370a082311461028e57806391d14854146102b657806395d89b41146102c9578063a0ef91df146102d1575f80fd5b806318160ddd1161011057806318160ddd146101f357806323b872dd146101fb578063248a9ca31461020e5780632a0acc6a146102305780632f2ff15d14610244578063313ce56714610259575f80fd5b806301ffc9a71461014c57806306c933d81461017457806306fdde0314610196578063095ea7b3146101ab578063117803e3146101be575b5f80fd5b61015f61015a366004610a2f565b610378565b60405190151581526020015b60405180910390f35b61015f610182366004610a78565b60066020525f908152604090205460ff1681565b61019e6103ae565b60405161016b9190610a91565b61015f6101b9366004610adc565b61043e565b6101e57f6270edb7c868f86fda4adedba75108201087268ea345934db8bad688e1feb91b81565b60405190815260200161016b565b6002546101e5565b61015f610209366004610b04565b610455565b6101e561021c366004610b3d565b5f9081526005602052604090206001015490565b6101e55f80516020610bfe83398151915281565b610257610252366004610b54565b610478565b005b6040516012815260200161016b565b610257610276366004610b54565b6104a2565b610257610289366004610a78565b6104da565b6101e561029c366004610a78565b6001600160a01b03165f9081526020819052604090205490565b61015f6102c4366004610b54565b61051c565b61019e610546565b610257610555565b6101e55f81565b61015f6102ee366004610adc565b6105a0565b610257610301366004610a78565b6105ad565b6101e57f9f2df0fed2c77648de5860a4cc508cd0818c85b8b8a1ab4ceeef8d981c8956a681565b61025761033b366004610b54565b6105ec565b6101e561034e366004610b7e565b6001600160a01b039182165f90815260016020908152604080832093909416825291909152205490565b5f6001600160e01b03198216637965db0b60e01b14806103a857506301ffc9a760e01b6001600160e01b03198316145b92915050565b6060600380546103bd90610ba6565b80601f01602080910402602001604051908101604052809291908181526020018280546103e990610ba6565b80156104345780601f1061040b57610100808354040283529160200191610434565b820191905f5260205f20905b81548152906001019060200180831161041757829003601f168201915b5050505050905090565b5f3361044b818585610610565b5060019392505050565b5f3361046285828561061d565b61046d858585610697565b506001949350505050565b5f82815260056020526040902060010154610492816106f4565b61049c83836106fe565b50505050565b6001600160a01b03811633146104cb5760405163334bd91960e11b815260040160405180910390fd5b6104d5828261078f565b505050565b6104f15f80516020610bfe8339815191523361051c565b6104f9575f80fd5b6001600160a01b03165f908152600660205260409020805460ff19166001179055565b5f9182526005602090815260408084206001600160a01b0393909316845291905290205460ff1690565b6060600480546103bd90610ba6565b61056c5f80516020610bfe8339815191523361051c565b610574575f80fd5b60405133904780156108fc02915f818181858888f1935050505015801561059d573d5f803e3d5ffd5b50565b5f3361044b818585610697565b6105c45f80516020610bfe8339815191523361051c565b6105cc575f80fd5b6001600160a01b03165f908152600660205260409020805460ff19169055565b5f82815260056020526040902060010154610606816106f4565b61049c838361078f565b6104d583838360016107fa565b6001600160a01b038381165f908152600160209081526040808320938616835292905220545f19811461049c578181101561068957604051637dc7a0d960e11b81526001600160a01b038416600482015260248101829052604481018390526064015b60405180910390fd5b61049c84848484035f6107fa565b6001600160a01b0383166106c057604051634b637e8f60e11b81525f6004820152602401610680565b6001600160a01b0382166106e95760405163ec442f0560e01b81525f6004820152602401610680565b6104d58383836108cc565b61059d81336109f2565b5f610709838361051c565b610788575f8381526005602090815260408083206001600160a01b03861684529091529020805460ff191660011790556107403390565b6001600160a01b0316826001600160a01b0316847f2f8788117e7eff1d82e926ec794901d17c78024a50270940304540a733656f0d60405160405180910390a45060016103a8565b505f6103a8565b5f61079a838361051c565b15610788575f8381526005602090815260408083206001600160a01b0386168085529252808320805460ff1916905551339286917ff6391f5c32d9c69d2a47ea670b442974b53935d1edc7fd64eb21e047a839171b9190a45060016103a8565b6001600160a01b0384166108235760405163e602df0560e01b81525f6004820152602401610680565b6001600160a01b03831661084c57604051634a1406b160e11b81525f6004820152602401610680565b6001600160a01b038085165f908152600160209081526040808320938716835292905220829055801561049c57826001600160a01b0316846001600160a01b03167f8c5be1e5ebec7d5bd14f71427d1e84f3dd0314c0f7b2291e5b200ac8c7c3b925846040516108be91815260200190565b60405180910390a350505050565b6001600160a01b0383166108f6578060025f8282546108eb9190610bde565b909155506109669050565b6001600160a01b0383165f90815260208190526040902054818110156109485760405163391434e360e21b81526001600160a01b03851660048201526024810182905260448101839052606401610680565b6001600160a01b0384165f9081526020819052604090209082900390555b6001600160a01b038216610982576002805482900390556109a0565b6001600160a01b0382165f9081526020819052604090208054820190555b816001600160a01b0316836001600160a01b03167fddf252ad1be2c89b69c2b068fc378daa952ba7f163c4a11628f55a4df523b3ef836040516109e591815260200190565b60405180910390a3505050565b6109fc828261051c565b610a2b5760405163e2517d3f60e01b81526001600160a01b038216600482015260248101839052604401610680565b5050565b5f60208284031215610a3f575f80fd5b81356001600160e01b031981168114610a56575f80fd5b9392505050565b80356001600160a01b0381168114610a73575f80fd5b919050565b5f60208284031215610a88575f80fd5b610a5682610a5d565b5f6020808352835180828501525f5b81811015610abc57858101830151858201604001528201610aa0565b505f604082860101526040601f19601f8301168501019250505092915050565b5f8060408385031215610aed575f80fd5b610af683610a5d565b946020939093013593505050565b5f805f60608486031215610b16575f80fd5b610b1f84610a5d565b9250610b2d60208501610a5d565b9150604084013590509250925092565b5f60208284031215610b4d575f80fd5b5035919050565b5f8060408385031215610b65575f80fd5b82359150610b7560208401610a5d565b90509250929050565b5f8060408385031215610b8f575f80fd5b610b9883610a5d565b9150610b7560208401610a5d565b600181811c90821680610bba57607f821691505b602082108103610bd857634e487b7160e01b5f52602260045260245ffd5b50919050565b808201808211156103a857634e487b7160e01b5f52601160045260245ffdfedf8b4c520ffe197c5343c6f5aec59570151ef9a492f2c624fd45ddde6135ec42a26469706673582212206d0ab4a89e68acf0155ffafa61279fa2b4a0283559b32f0535b29f669d09140d64736f6c63430008140033df8b4c520ffe197c5343c6f5aec59570151ef9a492f2c624fd45ddde6135ec429f2df0fed2c77648de5860a4cc508cd0818c85b8b8a1ab4ceeef8d981c8956a66270edb7c868f86fda4adedba75108201087268ea345934db8bad688e1feb91ba26469706673582212206d9481c702d1d8a2c10456e10896848770b752d1c0891f6f02563442d3c9334d64736f6c63430008140033df8b4c520ffe197c5343c6f5aec59570151ef9a492f2c624fd45ddde6135ec426270edb7c868f86fda4adedba75108201087268ea345934db8bad688e1feb91b",
    "linkReferences": {},
    "deployedLinkReferences": {}
}