{
  "_format": "hh-sol-artifact-1",
  "contractName": "MintERC721Pool",
  "sourceName": "contracts/MintERC721Pool.sol",
  "abi": [
    {
      "inputs": [
        {
          "internalType": "address",
          "name": "_deployer",
          "type": "address"
        },
        {
          "internalType": "address",
          "name": "_nftAddress",
          "type": "address"
        },
        {
          "internalType": "uint256",
          "name": "_priceNft",
          "type": "uint256"
        },
        {
          "internalType": "uint256",
          "name": "_tokenLimitMint",
          "type": "uint256"
        },
        {
          "internalType": "string",
          "name": "_tokenURIBase",
          "type": "string"
        }
      ],
      "stateMutability": "nonpayable",
      "type": "constructor"
    },
    {
      "inputs": [],
      "name": "AccessControlBadConfirmation",
      "type": "error"
    },
    {
      "inputs": [
        {
          "internalType": "address",
          "name": "account",
          "type": "address"
        },
        {
          "internalType": "bytes32",
          "name": "neededRole",
          "type": "bytes32"
        }
      ],
      "name": "AccessControlUnauthorizedAccount",
      "type": "error"
    },
    {
      "anonymous": false,
      "inputs": [
        {
          "indexed": false,
          "internalType": "address",
          "name": "sender",
          "type": "address"
        },
        {
          "indexed": false,
          "internalType": "uint256",
          "name": "tokenId",
          "type": "uint256"
        }
      ],
      "name": "BuyNft",
      "type": "event"
    },
    {
      "anonymous": false,
      "inputs": [
        {
          "indexed": true,
          "internalType": "bytes32",
          "name": "role",
          "type": "bytes32"
        },
        {
          "indexed": true,
          "internalType": "bytes32",
          "name": "previousAdminRole",
          "type": "bytes32"
        },
        {
          "indexed": true,
          "internalType": "bytes32",
          "name": "newAdminRole",
          "type": "bytes32"
        }
      ],
      "name": "RoleAdminChanged",
      "type": "event"
    },
    {
      "anonymous": false,
      "inputs": [
        {
          "indexed": true,
          "internalType": "bytes32",
          "name": "role",
          "type": "bytes32"
        },
        {
          "indexed": true,
          "internalType": "address",
          "name": "account",
          "type": "address"
        },
        {
          "indexed": true,
          "internalType": "address",
          "name": "sender",
          "type": "address"
        }
      ],
      "name": "RoleGranted",
      "type": "event"
    },
    {
      "anonymous": false,
      "inputs": [
        {
          "indexed": true,
          "internalType": "bytes32",
          "name": "role",
          "type": "bytes32"
        },
        {
          "indexed": true,
          "internalType": "address",
          "name": "account",
          "type": "address"
        },
        {
          "indexed": true,
          "internalType": "address",
          "name": "sender",
          "type": "address"
        }
      ],
      "name": "RoleRevoked",
      "type": "event"
    },
    {
      "anonymous": false,
      "inputs": [
        {
          "indexed": false,
          "internalType": "address",
          "name": "withdrawAddress",
          "type": "address"
        },
        {
          "indexed": false,
          "internalType": "uint256",
          "name": "amount",
          "type": "uint256"
        }
      ],
      "name": "TransferFund",
      "type": "event"
    },
    {
      "stateMutability": "payable",
      "type": "fallback"
    },
    {
      "inputs": [],
      "name": "ADMIN",
      "outputs": [
        {
          "internalType": "bytes32",
          "name": "",
          "type": "bytes32"
        }
      ],
      "stateMutability": "view",
      "type": "function"
    },
    {
      "inputs": [],
      "name": "DEFAULT_ADMIN_ROLE",
      "outputs": [
        {
          "internalType": "bytes32",
          "name": "",
          "type": "bytes32"
        }
      ],
      "stateMutability": "view",
      "type": "function"
    },
    {
      "inputs": [],
      "name": "MINTER_ROLE",
      "outputs": [
        {
          "internalType": "bytes32",
          "name": "",
          "type": "bytes32"
        }
      ],
      "stateMutability": "view",
      "type": "function"
    },
    {
      "inputs": [],
      "name": "OWNER",
      "outputs": [
        {
          "internalType": "bytes32",
          "name": "",
          "type": "bytes32"
        }
      ],
      "stateMutability": "view",
      "type": "function"
    },
    {
      "inputs": [],
      "name": "buyNft",
      "outputs": [],
      "stateMutability": "payable",
      "type": "function"
    },
    {
      "inputs": [
        {
          "internalType": "uint256",
          "name": "",
          "type": "uint256"
        }
      ],
      "name": "buyers",
      "outputs": [
        {
          "internalType": "address",
          "name": "owner",
          "type": "address"
        },
        {
          "internalType": "uint256",
          "name": "amount",
          "type": "uint256"
        },
        {
          "internalType": "uint256",
          "name": "tokenId",
          "type": "uint256"
        }
      ],
      "stateMutability": "view",
      "type": "function"
    },
    {
      "inputs": [
        {
          "internalType": "bytes32",
          "name": "role",
          "type": "bytes32"
        }
      ],
      "name": "getRoleAdmin",
      "outputs": [
        {
          "internalType": "bytes32",
          "name": "",
          "type": "bytes32"
        }
      ],
      "stateMutability": "view",
      "type": "function"
    },
    {
      "inputs": [
        {
          "internalType": "bytes32",
          "name": "role",
          "type": "bytes32"
        },
        {
          "internalType": "address",
          "name": "account",
          "type": "address"
        }
      ],
      "name": "grantRole",
      "outputs": [],
      "stateMutability": "nonpayable",
      "type": "function"
    },
    {
      "inputs": [
        {
          "internalType": "bytes32",
          "name": "role",
          "type": "bytes32"
        },
        {
          "internalType": "address",
          "name": "account",
          "type": "address"
        }
      ],
      "name": "hasRole",
      "outputs": [
        {
          "internalType": "bool",
          "name": "",
          "type": "bool"
        }
      ],
      "stateMutability": "view",
      "type": "function"
    },
    {
      "inputs": [],
      "name": "nftAddress",
      "outputs": [
        {
          "internalType": "address",
          "name": "",
          "type": "address"
        }
      ],
      "stateMutability": "view",
      "type": "function"
    },
    {
      "inputs": [
        {
          "internalType": "address",
          "name": "",
          "type": "address"
        }
      ],
      "name": "payers",
      "outputs": [
        {
          "internalType": "uint256",
          "name": "",
          "type": "uint256"
        }
      ],
      "stateMutability": "view",
      "type": "function"
    },
    {
      "inputs": [],
      "name": "priceNft",
      "outputs": [
        {
          "internalType": "uint256",
          "name": "",
          "type": "uint256"
        }
      ],
      "stateMutability": "view",
      "type": "function"
    },
    {
      "inputs": [
        {
          "internalType": "bytes32",
          "name": "role",
          "type": "bytes32"
        },
        {
          "internalType": "address",
          "name": "callerConfirmation",
          "type": "address"
        }
      ],
      "name": "renounceRole",
      "outputs": [],
      "stateMutability": "nonpayable",
      "type": "function"
    },
    {
      "inputs": [
        {
          "internalType": "bytes32",
          "name": "role",
          "type": "bytes32"
        },
        {
          "internalType": "address",
          "name": "account",
          "type": "address"
        }
      ],
      "name": "revokeRole",
      "outputs": [],
      "stateMutability": "nonpayable",
      "type": "function"
    },
    {
      "inputs": [
        {
          "internalType": "uint256",
          "name": "_newPrice",
          "type": "uint256"
        }
      ],
      "name": "setPrice",
      "outputs": [],
      "stateMutability": "nonpayable",
      "type": "function"
    },
    {
      "inputs": [
        {
          "internalType": "uint256",
          "name": "_newTokenLimitMint",
          "type": "uint256"
        }
      ],
      "name": "setTokenLimitMint",
      "outputs": [],
      "stateMutability": "nonpayable",
      "type": "function"
    },
    {
      "inputs": [
        {
          "internalType": "bytes4",
          "name": "interfaceId",
          "type": "bytes4"
        }
      ],
      "name": "supportsInterface",
      "outputs": [
        {
          "internalType": "bool",
          "name": "",
          "type": "bool"
        }
      ],
      "stateMutability": "view",
      "type": "function"
    },
    {
      "inputs": [],
      "name": "tokenURIBase",
      "outputs": [
        {
          "internalType": "string",
          "name": "",
          "type": "string"
        }
      ],
      "stateMutability": "view",
      "type": "function"
    },
    {
      "inputs": [],
      "name": "tokenURIBaseBytes",
      "outputs": [
        {
          "internalType": "bytes32",
          "name": "",
          "type": "bytes32"
        }
      ],
      "stateMutability": "view",
      "type": "function"
    },
    {
      "inputs": [],
      "name": "tokenURIBaseUnrevealed",
      "outputs": [
        {
          "internalType": "bytes32",
          "name": "",
          "type": "bytes32"
        }
      ],
      "stateMutability": "view",
      "type": "function"
    },
    {
      "inputs": [
        {
          "internalType": "address",
          "name": "_withdrawAddress",
          "type": "address"
        },
        {
          "internalType": "uint256",
          "name": "_amount",
          "type": "uint256"
        }
      ],
      "name": "transferFund",
      "outputs": [],
      "stateMutability": "nonpayable",
      "type": "function"
    },
    {
      "stateMutability": "payable",
      "type": "receive"
    }
  ],
  "bytecode": "0x60806040523480156200001157600080fd5b506040516200126e3803806200126e833981016040819052620000349162000263565b600180546001600160a01b0319166001600160a01b03861617905560088390556002829055600362000067828262000401565b50620000836000805160206200120e8339815191528062000136565b620000ad6000805160206200122e8339815191526000805160206200120e83398151915262000136565b620000d76000805160206200124e8339815191526000805160206200120e83398151915262000136565b620000f26000805160206200120e8339815191528662000181565b506200010e6000805160206200122e8339815191528662000181565b506200012a6000805160206200124e8339815191528662000181565b505050505050620004cd565b600082815260208190526040808220600101805490849055905190918391839186917fbd79b86ffe0ab8e8776151514217cd7cacd52c909f66475c3af44e129f0b00ff9190a4505050565b6000828152602081815260408083206001600160a01b038516845290915281205460ff1662000226576000838152602081815260408083206001600160a01b03861684529091529020805460ff19166001179055620001dd3390565b6001600160a01b0316826001600160a01b0316847f2f8788117e7eff1d82e926ec794901d17c78024a50270940304540a733656f0d60405160405180910390a45060016200022a565b5060005b92915050565b80516001600160a01b03811681146200024857600080fd5b919050565b634e487b7160e01b600052604160045260246000fd5b600080600080600060a086880312156200027c57600080fd5b620002878662000230565b945060206200029881880162000230565b6040880151606089015160808a015192975090955093506001600160401b0380821115620002c557600080fd5b818901915089601f830112620002da57600080fd5b815181811115620002ef57620002ef6200024d565b604051601f8201601f19908116603f011681019083821181831017156200031a576200031a6200024d565b816040528281528c868487010111156200033357600080fd5b600093505b8284101562000357578484018601518185018701529285019262000338565b60008684830101528096505050505050509295509295909350565b600181811c908216806200038757607f821691505b602082108103620003a857634e487b7160e01b600052602260045260246000fd5b50919050565b601f821115620003fc57600081815260208120601f850160051c81016020861015620003d75750805b601f850160051c820191505b81811015620003f857828155600101620003e3565b5050505b505050565b81516001600160401b038111156200041d576200041d6200024d565b62000435816200042e845462000372565b84620003ae565b602080601f8311600181146200046d5760008415620004545750858301515b600019600386901b1c1916600185901b178555620003f8565b600085815260208120601f198616915b828110156200049e578886015182559484019460019091019084016200047d565b5085821015620004bd5787850151600019600388901b60f8161c191681555b5050505050600190811b01905550565b610d3180620004dd6000396000f3fe6080604052600436106101225760003560e01c80638be0bbae116100a5578063a8b2d7831161006c578063a8b2d7831461035c578063d539139314610372578063d547741f146103a6578063e2dc35e0146103c6578063e69257c2146103e6578063f2aa8218146103ee57005b80638be0bbae146102d15780638bfcdd40146102e757806391b7f5ed1461030757806391d1485414610327578063a217fddf1461034757005b80632f2ff15d116100e95780632f2ff15d1461021657806336568abe1461023657806346c8d170146102565780634a714c241461026c5780635bf8633a1461029957005b806301ffc9a71461012b578063117803e314610160578063248a9ca3146101a2578063261220a3146101d25780632a0acc6a146101f457005b3661012957005b005b34801561013757600080fd5b5061014b610146366004610a63565b610459565b60405190151581526020015b60405180910390f35b34801561016c57600080fd5b506101947f6270edb7c868f86fda4adedba75108201087268ea345934db8bad688e1feb91b81565b604051908152602001610157565b3480156101ae57600080fd5b506101946101bd366004610a94565b60009081526020819052604090206001015490565b3480156101de57600080fd5b506101e7610490565b6040516101579190610aad565b34801561020057600080fd5b50610194600080516020610cdc83398151915281565b34801561022257600080fd5b50610129610231366004610b17565b61051e565b34801561024257600080fd5b50610129610251366004610b17565b610549565b34801561026257600080fd5b5061019460085481565b34801561027857600080fd5b50610194610287366004610b43565b60076020526000908152604090205481565b3480156102a557600080fd5b506001546102b9906001600160a01b031681565b6040516001600160a01b039091168152602001610157565b3480156102dd57600080fd5b5061019460045481565b3480156102f357600080fd5b50610129610302366004610a94565b610581565b34801561031357600080fd5b50610129610322366004610a94565b6105c3565b34801561033357600080fd5b5061014b610342366004610b17565b6105fc565b34801561035357600080fd5b50610194600081565b34801561036857600080fd5b5061019460055481565b34801561037e57600080fd5b506101947f9f2df0fed2c77648de5860a4cc508cd0818c85b8b8a1ab4ceeef8d981c8956a681565b3480156103b257600080fd5b506101296103c1366004610b17565b610625565b3480156103d257600080fd5b506101296103e1366004610b5e565b61064a565b6101296106fb565b3480156103fa57600080fd5b50610434610409366004610a94565b6006602052600090815260409020805460018201546002909201546001600160a01b03909116919083565b604080516001600160a01b039094168452602084019290925290820152606001610157565b60006001600160e01b03198216637965db0b60e01b148061048a57506301ffc9a760e01b6001600160e01b03198316145b92915050565b6003805461049d90610b88565b80601f01602080910402602001604051908101604052809291908181526020018280546104c990610b88565b80156105165780601f106104eb57610100808354040283529160200191610516565b820191906000526020600020905b8154815290600101906020018083116104f957829003601f168201915b505050505081565b6000828152602081905260409020600101546105398161091c565b6105438383610929565b50505050565b6001600160a01b03811633146105725760405163334bd91960e11b815260040160405180910390fd5b61057c82826109bb565b505050565b610599600080516020610cdc833981519152336105fc565b6105be5760405162461bcd60e51b81526004016105b590610bc2565b60405180910390fd5b600255565b6105db600080516020610cdc833981519152336105fc565b6105f75760405162461bcd60e51b81526004016105b590610bc2565b600855565b6000918252602082815260408084206001600160a01b0393909316845291905290205460ff1690565b6000828152602081905260409020600101546106408161091c565b61054383836109bb565b610662600080516020610cdc833981519152336105fc565b61067e5760405162461bcd60e51b81526004016105b590610bc2565b6040516001600160a01b0383169082156108fc029083906000818181858888f193505050501580156106b4573d6000803e3d6000fd5b50604080516001600160a01b0384168152602081018390527f189c727c18e1bfd597dc8b950156a62895d9ac087e0edb4077b4ba90eea06100910160405180910390a15050565b6008543490339082101561073d5760405162461bcd60e51b81526020600482015260096024820152686c6f7720707269636560b81b60448201526064016105b5565b600254600160009054906101000a90046001600160a01b03166001600160a01b03166318160ddd6040518163ffffffff1660e01b8152600401602060405180830381865afa158015610793573d6000803e3d6000fd5b505050506040513d601f19601f820116820180604052508101906107b79190610be4565b6107c2906001610bfd565b11156107fc5760405162461bcd60e51b81526020600482015260096024820152681b1a5b5a5d1b5a5b9d60ba1b60448201526064016105b5565b60015460405163d0def52160e01b81526000916001600160a01b03169063d0def52190610830908590600390600401610c1e565b6020604051808303816000875af115801561084f573d6000803e3d6000fd5b505050506040513d601f19601f820116820180604052508101906108739190610be4565b604080516060810182526001600160a01b038581168083526008546020808501918252848601878152600088815260068352878120965187546001600160a01b0319169616959095178655915160018601559051600290940193909355808252600783529083902084905582519081529081018390529192507ffbdb942dd748564da1244faf400597edfd00db5d0b78c45429ec2dcb9c808519910160405180910390a1505050565b6109268133610a26565b50565b600061093583836105fc565b6109b3576000838152602081815260408083206001600160a01b03861684529091529020805460ff1916600117905561096b3390565b6001600160a01b0316826001600160a01b0316847f2f8788117e7eff1d82e926ec794901d17c78024a50270940304540a733656f0d60405160405180910390a450600161048a565b50600061048a565b60006109c783836105fc565b156109b3576000838152602081815260408083206001600160a01b0386168085529252808320805460ff1916905551339286917ff6391f5c32d9c69d2a47ea670b442974b53935d1edc7fd64eb21e047a839171b9190a450600161048a565b610a3082826105fc565b610a5f5760405163e2517d3f60e01b81526001600160a01b0382166004820152602481018390526044016105b5565b5050565b600060208284031215610a7557600080fd5b81356001600160e01b031981168114610a8d57600080fd5b9392505050565b600060208284031215610aa657600080fd5b5035919050565b600060208083528351808285015260005b81811015610ada57858101830151858201604001528201610abe565b506000604082860101526040601f19601f8301168501019250505092915050565b80356001600160a01b0381168114610b1257600080fd5b919050565b60008060408385031215610b2a57600080fd5b82359150610b3a60208401610afb565b90509250929050565b600060208284031215610b5557600080fd5b610a8d82610afb565b60008060408385031215610b7157600080fd5b610b7a83610afb565b946020939093013593505050565b600181811c90821680610b9c57607f821691505b602082108103610bbc57634e487b7160e01b600052602260045260246000fd5b50919050565b6020808252600890820152673737ba20b236b4b760c11b604082015260600190565b600060208284031215610bf657600080fd5b5051919050565b8082018082111561048a57634e487b7160e01b600052601160045260246000fd5b60018060a01b0383168152600060206040818401526000845481600182811c915080831680610c4e57607f831692505b8583108103610c6b57634e487b7160e01b85526022600452602485fd5b6040880183905260608801818015610c8a5760018114610ca057610ccb565b60ff198616825284151560051b82019650610ccb565b60008b81526020902060005b86811015610cc557815484820152908501908901610cac565b83019750505b50949a995050505050505050505056fedf8b4c520ffe197c5343c6f5aec59570151ef9a492f2c624fd45ddde6135ec42a2646970667358221220e53dee7923266ad122432c551bbb347c0118cd360cfa199709da831e62b7546e64736f6c63430008140033df8b4c520ffe197c5343c6f5aec59570151ef9a492f2c624fd45ddde6135ec429f2df0fed2c77648de5860a4cc508cd0818c85b8b8a1ab4ceeef8d981c8956a66270edb7c868f86fda4adedba75108201087268ea345934db8bad688e1feb91b",
  "linkReferences": {},
  "deployedLinkReferences": {}
}