{
    "_format": "hh-sol-artifact-1",
    "contractName": "MintERC20Pool",
    "sourceName": "contracts/MintERC20Pool.sol",
    "abi": [
        {
            "inputs": [
                {
                    "internalType": "address",
                    "name": "_deployer",
                    "type": "address"
                },
                {
                    "internalType": "address",
                    "name": "_tokenAddress",
                    "type": "address"
                },
                {
                    "internalType": "uint256",
                    "name": "_priceByToken",
                    "type": "uint256"
                },
                {
                    "internalType": "uint256",
                    "name": "_tokenLimitMint",
                    "type": "uint256"
                },
                {
                    "internalType": "string",
                    "name": "_tokenURIBase",
                    "type": "string"
                }
            ],
            "stateMutability": "nonpayable",
            "type": "constructor"
        },
        {
            "inputs": [],
            "name": "AccessControlBadConfirmation",
            "type": "error"
        },
        {
            "inputs": [
                {
                    "internalType": "address",
                    "name": "account",
                    "type": "address"
                },
                {
                    "internalType": "bytes32",
                    "name": "neededRole",
                    "type": "bytes32"
                }
            ],
            "name": "AccessControlUnauthorizedAccount",
            "type": "error"
        },
        {
            "anonymous": false,
            "inputs": [
                {
                    "indexed": false,
                    "internalType": "address",
                    "name": "sender",
                    "type": "address"
                },
                {
                    "indexed": false,
                    "internalType": "uint256",
                    "name": "amount",
                    "type": "uint256"
                },
                {
                    "indexed": false,
                    "internalType": "uint256",
                    "name": "price",
                    "type": "uint256"
                },
                {
                    "indexed": false,
                    "internalType": "uint256",
                    "name": "paid",
                    "type": "uint256"
                }
            ],
            "name": "BuyToken",
            "type": "event"
        },
        {
            "anonymous": false,
            "inputs": [
                {
                    "indexed": true,
                    "internalType": "bytes32",
                    "name": "role",
                    "type": "bytes32"
                },
                {
                    "indexed": true,
                    "internalType": "bytes32",
                    "name": "previousAdminRole",
                    "type": "bytes32"
                },
                {
                    "indexed": true,
                    "internalType": "bytes32",
                    "name": "newAdminRole",
                    "type": "bytes32"
                }
            ],
            "name": "RoleAdminChanged",
            "type": "event"
        },
        {
            "anonymous": false,
            "inputs": [
                {
                    "indexed": true,
                    "internalType": "bytes32",
                    "name": "role",
                    "type": "bytes32"
                },
                {
                    "indexed": true,
                    "internalType": "address",
                    "name": "account",
                    "type": "address"
                },
                {
                    "indexed": true,
                    "internalType": "address",
                    "name": "sender",
                    "type": "address"
                }
            ],
            "name": "RoleGranted",
            "type": "event"
        },
        {
            "anonymous": false,
            "inputs": [
                {
                    "indexed": true,
                    "internalType": "bytes32",
                    "name": "role",
                    "type": "bytes32"
                },
                {
                    "indexed": true,
                    "internalType": "address",
                    "name": "account",
                    "type": "address"
                },
                {
                    "indexed": true,
                    "internalType": "address",
                    "name": "sender",
                    "type": "address"
                }
            ],
            "name": "RoleRevoked",
            "type": "event"
        },
        {
            "anonymous": false,
            "inputs": [
                {
                    "indexed": false,
                    "internalType": "address",
                    "name": "withdrawAddress",
                    "type": "address"
                },
                {
                    "indexed": false,
                    "internalType": "uint256",
                    "name": "amount",
                    "type": "uint256"
                }
            ],
            "name": "TransferFund",
            "type": "event"
        },
        {
            "stateMutability": "payable",
            "type": "fallback"
        },
        {
            "inputs": [],
            "name": "ADMIN",
            "outputs": [
                {
                    "internalType": "bytes32",
                    "name": "",
                    "type": "bytes32"
                }
            ],
            "stateMutability": "view",
            "type": "function"
        },
        {
            "inputs": [],
            "name": "DEFAULT_ADMIN_ROLE",
            "outputs": [
                {
                    "internalType": "bytes32",
                    "name": "",
                    "type": "bytes32"
                }
            ],
            "stateMutability": "view",
            "type": "function"
        },
        {
            "inputs": [],
            "name": "MINTER_ROLE",
            "outputs": [
                {
                    "internalType": "bytes32",
                    "name": "",
                    "type": "bytes32"
                }
            ],
            "stateMutability": "view",
            "type": "function"
        },
        {
            "inputs": [],
            "name": "OWNER",
            "outputs": [
                {
                    "internalType": "bytes32",
                    "name": "",
                    "type": "bytes32"
                }
            ],
            "stateMutability": "view",
            "type": "function"
        },
        {
            "inputs": [
                {
                    "internalType": "uint256",
                    "name": "_amountToBuy",
                    "type": "uint256"
                }
            ],
            "name": "buyToken",
            "outputs": [],
            "stateMutability": "payable",
            "type": "function"
        },
        {
            "inputs": [
                {
                    "internalType": "uint256",
                    "name": "",
                    "type": "uint256"
                }
            ],
            "name": "buyers",
            "outputs": [
                {
                    "internalType": "address",
                    "name": "sender",
                    "type": "address"
                },
                {
                    "internalType": "uint256",
                    "name": "amount",
                    "type": "uint256"
                },
                {
                    "internalType": "uint256",
                    "name": "price",
                    "type": "uint256"
                },
                {
                    "internalType": "uint256",
                    "name": "paid",
                    "type": "uint256"
                }
            ],
            "stateMutability": "view",
            "type": "function"
        },
        {
            "inputs": [
                {
                    "internalType": "bytes32",
                    "name": "role",
                    "type": "bytes32"
                }
            ],
            "name": "getRoleAdmin",
            "outputs": [
                {
                    "internalType": "bytes32",
                    "name": "",
                    "type": "bytes32"
                }
            ],
            "stateMutability": "view",
            "type": "function"
        },
        {
            "inputs": [
                {
                    "internalType": "bytes32",
                    "name": "role",
                    "type": "bytes32"
                },
                {
                    "internalType": "address",
                    "name": "account",
                    "type": "address"
                }
            ],
            "name": "grantRole",
            "outputs": [],
            "stateMutability": "nonpayable",
            "type": "function"
        },
        {
            "inputs": [
                {
                    "internalType": "bytes32",
                    "name": "role",
                    "type": "bytes32"
                },
                {
                    "internalType": "address",
                    "name": "account",
                    "type": "address"
                }
            ],
            "name": "hasRole",
            "outputs": [
                {
                    "internalType": "bool",
                    "name": "",
                    "type": "bool"
                }
            ],
            "stateMutability": "view",
            "type": "function"
        },
        {
            "inputs": [
                {
                    "internalType": "address",
                    "name": "",
                    "type": "address"
                }
            ],
            "name": "payers",
            "outputs": [
                {
                    "internalType": "uint256",
                    "name": "",
                    "type": "uint256"
                }
            ],
            "stateMutability": "view",
            "type": "function"
        },
        {
            "inputs": [],
            "name": "priceByToken",
            "outputs": [
                {
                    "internalType": "uint256",
                    "name": "",
                    "type": "uint256"
                }
            ],
            "stateMutability": "view",
            "type": "function"
        },
        {
            "inputs": [
                {
                    "internalType": "bytes32",
                    "name": "role",
                    "type": "bytes32"
                },
                {
                    "internalType": "address",
                    "name": "callerConfirmation",
                    "type": "address"
                }
            ],
            "name": "renounceRole",
            "outputs": [],
            "stateMutability": "nonpayable",
            "type": "function"
        },
        {
            "inputs": [
                {
                    "internalType": "bytes32",
                    "name": "role",
                    "type": "bytes32"
                },
                {
                    "internalType": "address",
                    "name": "account",
                    "type": "address"
                }
            ],
            "name": "revokeRole",
            "outputs": [],
            "stateMutability": "nonpayable",
            "type": "function"
        },
        {
            "inputs": [
                {
                    "internalType": "uint256",
                    "name": "_newPrice",
                    "type": "uint256"
                }
            ],
            "name": "setPrice",
            "outputs": [],
            "stateMutability": "nonpayable",
            "type": "function"
        },
        {
            "inputs": [
                {
                    "internalType": "uint256",
                    "name": "_newTokenLimitMint",
                    "type": "uint256"
                }
            ],
            "name": "setTokenLimitMint",
            "outputs": [],
            "stateMutability": "nonpayable",
            "type": "function"
        },
        {
            "inputs": [
                {
                    "internalType": "bytes4",
                    "name": "interfaceId",
                    "type": "bytes4"
                }
            ],
            "name": "supportsInterface",
            "outputs": [
                {
                    "internalType": "bool",
                    "name": "",
                    "type": "bool"
                }
            ],
            "stateMutability": "view",
            "type": "function"
        },
        {
            "inputs": [],
            "name": "tokenAddress",
            "outputs": [
                {
                    "internalType": "address",
                    "name": "",
                    "type": "address"
                }
            ],
            "stateMutability": "view",
            "type": "function"
        },
        {
            "inputs": [
                {
                    "internalType": "address",
                    "name": "_withdrawAddress",
                    "type": "address"
                },
                {
                    "internalType": "uint256",
                    "name": "_amount",
                    "type": "uint256"
                }
            ],
            "name": "transferFund",
            "outputs": [],
            "stateMutability": "nonpayable",
            "type": "function"
        },
        {
            "stateMutability": "payable",
            "type": "receive"
        }
    ],
    "bytecode": "0x60806040523480156200001157600080fd5b5060405162000f2538038062000f25833981016040819052620000349162000254565b600180546001600160a01b0319166001600160a01b038616179055600383905560028290556200007460008051602062000ec58339815191528062000127565b6200009e60008051602062000ee583398151915260008051602062000ec583398151915262000127565b620000c860008051602062000f0583398151915260008051602062000ec583398151915262000127565b620000e360008051602062000ec58339815191528662000172565b50620000ff60008051602062000ee58339815191528662000172565b506200011b60008051602062000f058339815191528662000172565b50505050505062000363565b600082815260208190526040808220600101805490849055905190918391839186917fbd79b86ffe0ab8e8776151514217cd7cacd52c909f66475c3af44e129f0b00ff9190a4505050565b6000828152602081815260408083206001600160a01b038516845290915281205460ff1662000217576000838152602081815260408083206001600160a01b03861684529091529020805460ff19166001179055620001ce3390565b6001600160a01b0316826001600160a01b0316847f2f8788117e7eff1d82e926ec794901d17c78024a50270940304540a733656f0d60405160405180910390a45060016200021b565b5060005b92915050565b80516001600160a01b03811681146200023957600080fd5b919050565b634e487b7160e01b600052604160045260246000fd5b600080600080600060a086880312156200026d57600080fd5b620002788662000221565b945060206200028981880162000221565b6040880151606089015160808a015192975090955093506001600160401b0380821115620002b657600080fd5b818901915089601f830112620002cb57600080fd5b815181811115620002e057620002e06200023e565b604051601f8201601f19908116603f011681019083821181831017156200030b576200030b6200023e565b816040528281528c868487010111156200032457600080fd5b600093505b8284101562000348578484018601518185018701529285019262000329565b60008684830101528096505050505050509295509295909350565b610b5280620003736000396000f3fe6080604052600436106101015760003560e01c80638bfcdd401161008f578063a217fddf11610061578063a217fddf14610301578063d539139314610316578063d547741f1461034a578063e2dc35e01461036a578063f2aa82181461038a57005b80638bfcdd401461026957806391b7f5ed1461028957806391d14854146102a95780639d76ea58146102c957005b80632d296bf1116100d35780632d296bf1146101d35780632f2ff15d146101e657806336568abe146102065780634a714c24146102265780635411121d1461025357005b806301ffc9a71461010a578063117803e31461013f578063248a9ca3146101815780632a0acc6a146101b157005b3661010857005b005b34801561011657600080fd5b5061012a6101253660046109aa565b610400565b60405190151581526020015b60405180910390f35b34801561014b57600080fd5b506101737f6270edb7c868f86fda4adedba75108201087268ea345934db8bad688e1feb91b81565b604051908152602001610136565b34801561018d57600080fd5b5061017361019c3660046109db565b60009081526020819052604090206001015490565b3480156101bd57600080fd5b50610173600080516020610afd83398151915281565b6101086101e13660046109db565b610437565b3480156101f257600080fd5b50610108610201366004610a10565b61068f565b34801561021257600080fd5b50610108610221366004610a10565b6106ba565b34801561023257600080fd5b50610173610241366004610a3c565b60056020526000908152604090205481565b34801561025f57600080fd5b5061017360035481565b34801561027557600080fd5b506101086102843660046109db565b6106f2565b34801561029557600080fd5b506101086102a43660046109db565b61072b565b3480156102b557600080fd5b5061012a6102c4366004610a10565b610764565b3480156102d557600080fd5b506001546102e9906001600160a01b031681565b6040516001600160a01b039091168152602001610136565b34801561030d57600080fd5b50610173600081565b34801561032257600080fd5b506101737f9f2df0fed2c77648de5860a4cc508cd0818c85b8b8a1ab4ceeef8d981c8956a681565b34801561035657600080fd5b50610108610365366004610a10565b61078d565b34801561037657600080fd5b50610108610385366004610a57565b6107b2565b34801561039657600080fd5b506103d66103a53660046109db565b60046020526000908152604090208054600182015460028301546003909301546001600160a01b0390921692909184565b604080516001600160a01b0390951685526020850193909352918301526060820152608001610136565b60006001600160e01b03198216637965db0b60e01b148061043157506301ffc9a760e01b6001600160e01b03198316145b92915050565b6003543490339060009061044c908590610a97565b90508083101561048f5760405162461bcd60e51b81526020600482015260096024820152686c6f7720707269636560b81b60448201526064015b60405180910390fd5b600254600160009054906101000a90046001600160a01b03166001600160a01b03166318160ddd6040518163ffffffff1660e01b8152600401602060405180830381865afa1580156104e5573d6000803e3d6000fd5b505050506040513d601f19601f820116820180604052508101906105099190610aae565b610514906001610ac7565b111561054e5760405162461bcd60e51b81526020600482015260096024820152681b1a5b5a5d1b5a5b9d60ba1b6044820152606401610486565b6001546040516340c10f1960e01b81526001600160a01b0384811660048301526024820187905260009216906340c10f19906044016020604051808303816000875af11580156105a2573d6000803e3d6000fd5b505050506040513d601f19601f820116820180604052508101906105c69190610aae565b60408051608080820183526001600160a01b0387811680845260208085018c81526003805487890190815260608089018d815260008c8152600487528b81209a518b546001600160a01b0319169916989098178a55935160018a0155905160028901559151968101969096558284526005825292869020879055935485519182529381018a9052938401929092529082018590529192507f047d414ddce29eba94711e9709b1446c3bb9339c2472cf6ff20610f80b186912910160405180910390a15050505050565b6000828152602081905260409020600101546106aa81610863565b6106b48383610870565b50505050565b6001600160a01b03811633146106e35760405163334bd91960e11b815260040160405180910390fd5b6106ed8282610902565b505050565b61070a600080516020610afd83398151915233610764565b6107265760405162461bcd60e51b815260040161048690610ada565b600255565b610743600080516020610afd83398151915233610764565b61075f5760405162461bcd60e51b815260040161048690610ada565b600355565b6000918252602082815260408084206001600160a01b0393909316845291905290205460ff1690565b6000828152602081905260409020600101546107a881610863565b6106b48383610902565b6107ca600080516020610afd83398151915233610764565b6107e65760405162461bcd60e51b815260040161048690610ada565b6040516001600160a01b0383169082156108fc029083906000818181858888f1935050505015801561081c573d6000803e3d6000fd5b50604080516001600160a01b0384168152602081018390527f189c727c18e1bfd597dc8b950156a62895d9ac087e0edb4077b4ba90eea06100910160405180910390a15050565b61086d813361096d565b50565b600061087c8383610764565b6108fa576000838152602081815260408083206001600160a01b03861684529091529020805460ff191660011790556108b23390565b6001600160a01b0316826001600160a01b0316847f2f8788117e7eff1d82e926ec794901d17c78024a50270940304540a733656f0d60405160405180910390a4506001610431565b506000610431565b600061090e8383610764565b156108fa576000838152602081815260408083206001600160a01b0386168085529252808320805460ff1916905551339286917ff6391f5c32d9c69d2a47ea670b442974b53935d1edc7fd64eb21e047a839171b9190a4506001610431565b6109778282610764565b6109a65760405163e2517d3f60e01b81526001600160a01b038216600482015260248101839052604401610486565b5050565b6000602082840312156109bc57600080fd5b81356001600160e01b0319811681146109d457600080fd5b9392505050565b6000602082840312156109ed57600080fd5b5035919050565b80356001600160a01b0381168114610a0b57600080fd5b919050565b60008060408385031215610a2357600080fd5b82359150610a33602084016109f4565b90509250929050565b600060208284031215610a4e57600080fd5b6109d4826109f4565b60008060408385031215610a6a57600080fd5b610a73836109f4565b946020939093013593505050565b634e487b7160e01b600052601160045260246000fd5b808202811582820484141761043157610431610a81565b600060208284031215610ac057600080fd5b5051919050565b8082018082111561043157610431610a81565b6020808252600890820152673737ba20b236b4b760c11b60408201526060019056fedf8b4c520ffe197c5343c6f5aec59570151ef9a492f2c624fd45ddde6135ec42a2646970667358221220b000d2db711f70723341d9c95cc41afd355eaea412fb24c9a25acd25c4ca1eb064736f6c63430008140033df8b4c520ffe197c5343c6f5aec59570151ef9a492f2c624fd45ddde6135ec429f2df0fed2c77648de5860a4cc508cd0818c85b8b8a1ab4ceeef8d981c8956a66270edb7c868f86fda4adedba75108201087268ea345934db8bad688e1feb91b",
    "linkReferences": {},
    "deployedLinkReferences": {}
}