{
  "_format": "hh-sol-artifact-1",
  "contractName": "NftERC721",
  "sourceName": "contracts/NftERC721.sol",
  "abi": [
    {
      "inputs": [
        {
          "internalType": "string",
          "name": "_name",
          "type": "string"
        },
        {
          "internalType": "string",
          "name": "_symbol",
          "type": "string"
        },
        {
          "internalType": "address",
          "name": "_deployer",
          "type": "address"
        },
        {
          "internalType": "string",
          "name": "_contractURI",
          "type": "string"
        }
      ],
      "stateMutability": "nonpayable",
      "type": "constructor"
    },
    {
      "inputs": [],
      "name": "AccessControlBadConfirmation",
      "type": "error"
    },
    {
      "inputs": [
        {
          "internalType": "address",
          "name": "account",
          "type": "address"
        },
        {
          "internalType": "bytes32",
          "name": "neededRole",
          "type": "bytes32"
        }
      ],
      "name": "AccessControlUnauthorizedAccount",
      "type": "error"
    },
    {
      "inputs": [
        {
          "internalType": "address",
          "name": "sender",
          "type": "address"
        },
        {
          "internalType": "uint256",
          "name": "tokenId",
          "type": "uint256"
        },
        {
          "internalType": "address",
          "name": "owner",
          "type": "address"
        }
      ],
      "name": "ERC721IncorrectOwner",
      "type": "error"
    },
    {
      "inputs": [
        {
          "internalType": "address",
          "name": "operator",
          "type": "address"
        },
        {
          "internalType": "uint256",
          "name": "tokenId",
          "type": "uint256"
        }
      ],
      "name": "ERC721InsufficientApproval",
      "type": "error"
    },
    {
      "inputs": [
        {
          "internalType": "address",
          "name": "approver",
          "type": "address"
        }
      ],
      "name": "ERC721InvalidApprover",
      "type": "error"
    },
    {
      "inputs": [
        {
          "internalType": "address",
          "name": "operator",
          "type": "address"
        }
      ],
      "name": "ERC721InvalidOperator",
      "type": "error"
    },
    {
      "inputs": [
        {
          "internalType": "address",
          "name": "owner",
          "type": "address"
        }
      ],
      "name": "ERC721InvalidOwner",
      "type": "error"
    },
    {
      "inputs": [
        {
          "internalType": "address",
          "name": "receiver",
          "type": "address"
        }
      ],
      "name": "ERC721InvalidReceiver",
      "type": "error"
    },
    {
      "inputs": [
        {
          "internalType": "address",
          "name": "sender",
          "type": "address"
        }
      ],
      "name": "ERC721InvalidSender",
      "type": "error"
    },
    {
      "inputs": [
        {
          "internalType": "uint256",
          "name": "tokenId",
          "type": "uint256"
        }
      ],
      "name": "ERC721NonexistentToken",
      "type": "error"
    },
    {
      "anonymous": false,
      "inputs": [
        {
          "indexed": true,
          "internalType": "address",
          "name": "owner",
          "type": "address"
        },
        {
          "indexed": true,
          "internalType": "address",
          "name": "approved",
          "type": "address"
        },
        {
          "indexed": true,
          "internalType": "uint256",
          "name": "tokenId",
          "type": "uint256"
        }
      ],
      "name": "Approval",
      "type": "event"
    },
    {
      "anonymous": false,
      "inputs": [
        {
          "indexed": true,
          "internalType": "address",
          "name": "owner",
          "type": "address"
        },
        {
          "indexed": true,
          "internalType": "address",
          "name": "operator",
          "type": "address"
        },
        {
          "indexed": false,
          "internalType": "bool",
          "name": "approved",
          "type": "bool"
        }
      ],
      "name": "ApprovalForAll",
      "type": "event"
    },
    {
      "anonymous": false,
      "inputs": [
        {
          "indexed": false,
          "internalType": "uint256",
          "name": "_fromTokenId",
          "type": "uint256"
        },
        {
          "indexed": false,
          "internalType": "uint256",
          "name": "_toTokenId",
          "type": "uint256"
        }
      ],
      "name": "BatchMetadataUpdate",
      "type": "event"
    },
    {
      "anonymous": false,
      "inputs": [
        {
          "indexed": false,
          "internalType": "uint256",
          "name": "_tokenId",
          "type": "uint256"
        }
      ],
      "name": "MetadataUpdate",
      "type": "event"
    },
    {
      "anonymous": false,
      "inputs": [
        {
          "indexed": false,
          "internalType": "address",
          "name": "sender",
          "type": "address"
        },
        {
          "indexed": false,
          "internalType": "uint256",
          "name": "newTokenId",
          "type": "uint256"
        },
        {
          "indexed": false,
          "internalType": "string",
          "name": "tokenURI",
          "type": "string"
        }
      ],
      "name": "MintNft",
      "type": "event"
    },
    {
      "anonymous": false,
      "inputs": [
        {
          "indexed": true,
          "internalType": "bytes32",
          "name": "role",
          "type": "bytes32"
        },
        {
          "indexed": true,
          "internalType": "bytes32",
          "name": "previousAdminRole",
          "type": "bytes32"
        },
        {
          "indexed": true,
          "internalType": "bytes32",
          "name": "newAdminRole",
          "type": "bytes32"
        }
      ],
      "name": "RoleAdminChanged",
      "type": "event"
    },
    {
      "anonymous": false,
      "inputs": [
        {
          "indexed": true,
          "internalType": "bytes32",
          "name": "role",
          "type": "bytes32"
        },
        {
          "indexed": true,
          "internalType": "address",
          "name": "account",
          "type": "address"
        },
        {
          "indexed": true,
          "internalType": "address",
          "name": "sender",
          "type": "address"
        }
      ],
      "name": "RoleGranted",
      "type": "event"
    },
    {
      "anonymous": false,
      "inputs": [
        {
          "indexed": true,
          "internalType": "bytes32",
          "name": "role",
          "type": "bytes32"
        },
        {
          "indexed": true,
          "internalType": "address",
          "name": "account",
          "type": "address"
        },
        {
          "indexed": true,
          "internalType": "address",
          "name": "sender",
          "type": "address"
        }
      ],
      "name": "RoleRevoked",
      "type": "event"
    },
    {
      "anonymous": false,
      "inputs": [
        {
          "indexed": true,
          "internalType": "address",
          "name": "from",
          "type": "address"
        },
        {
          "indexed": true,
          "internalType": "address",
          "name": "to",
          "type": "address"
        },
        {
          "indexed": true,
          "internalType": "uint256",
          "name": "tokenId",
          "type": "uint256"
        }
      ],
      "name": "Transfer",
      "type": "event"
    },
    {
      "inputs": [],
      "name": "ADMIN",
      "outputs": [
        {
          "internalType": "bytes32",
          "name": "",
          "type": "bytes32"
        }
      ],
      "stateMutability": "view",
      "type": "function"
    },
    {
      "inputs": [],
      "name": "DEFAULT_ADMIN_ROLE",
      "outputs": [
        {
          "internalType": "bytes32",
          "name": "",
          "type": "bytes32"
        }
      ],
      "stateMutability": "view",
      "type": "function"
    },
    {
      "inputs": [],
      "name": "MINTER_ROLE",
      "outputs": [
        {
          "internalType": "bytes32",
          "name": "",
          "type": "bytes32"
        }
      ],
      "stateMutability": "view",
      "type": "function"
    },
    {
      "inputs": [],
      "name": "OWNER",
      "outputs": [
        {
          "internalType": "bytes32",
          "name": "",
          "type": "bytes32"
        }
      ],
      "stateMutability": "view",
      "type": "function"
    },
    {
      "inputs": [
        {
          "internalType": "address",
          "name": "to",
          "type": "address"
        },
        {
          "internalType": "uint256",
          "name": "tokenId",
          "type": "uint256"
        }
      ],
      "name": "approve",
      "outputs": [],
      "stateMutability": "nonpayable",
      "type": "function"
    },
    {
      "inputs": [
        {
          "internalType": "address",
          "name": "owner",
          "type": "address"
        }
      ],
      "name": "balanceOf",
      "outputs": [
        {
          "internalType": "uint256",
          "name": "",
          "type": "uint256"
        }
      ],
      "stateMutability": "view",
      "type": "function"
    },
    {
      "inputs": [],
      "name": "contractURI",
      "outputs": [
        {
          "internalType": "string",
          "name": "",
          "type": "string"
        }
      ],
      "stateMutability": "view",
      "type": "function"
    },
    {
      "inputs": [],
      "name": "contractURIBytes",
      "outputs": [
        {
          "internalType": "bytes32",
          "name": "",
          "type": "bytes32"
        }
      ],
      "stateMutability": "view",
      "type": "function"
    },
    {
      "inputs": [
        {
          "internalType": "uint256",
          "name": "tokenId",
          "type": "uint256"
        }
      ],
      "name": "getApproved",
      "outputs": [
        {
          "internalType": "address",
          "name": "",
          "type": "address"
        }
      ],
      "stateMutability": "view",
      "type": "function"
    },
    {
      "inputs": [
        {
          "internalType": "bytes32",
          "name": "role",
          "type": "bytes32"
        }
      ],
      "name": "getRoleAdmin",
      "outputs": [
        {
          "internalType": "bytes32",
          "name": "",
          "type": "bytes32"
        }
      ],
      "stateMutability": "view",
      "type": "function"
    },
    {
      "inputs": [
        {
          "internalType": "bytes32",
          "name": "role",
          "type": "bytes32"
        },
        {
          "internalType": "address",
          "name": "account",
          "type": "address"
        }
      ],
      "name": "grantRole",
      "outputs": [],
      "stateMutability": "nonpayable",
      "type": "function"
    },
    {
      "inputs": [
        {
          "internalType": "bytes32",
          "name": "role",
          "type": "bytes32"
        },
        {
          "internalType": "address",
          "name": "account",
          "type": "address"
        }
      ],
      "name": "hasRole",
      "outputs": [
        {
          "internalType": "bool",
          "name": "",
          "type": "bool"
        }
      ],
      "stateMutability": "view",
      "type": "function"
    },
    {
      "inputs": [
        {
          "internalType": "address",
          "name": "owner",
          "type": "address"
        },
        {
          "internalType": "address",
          "name": "operator",
          "type": "address"
        }
      ],
      "name": "isApprovedForAll",
      "outputs": [
        {
          "internalType": "bool",
          "name": "",
          "type": "bool"
        }
      ],
      "stateMutability": "view",
      "type": "function"
    },
    {
      "inputs": [
        {
          "internalType": "address",
          "name": "sender",
          "type": "address"
        },
        {
          "internalType": "string",
          "name": "tokenURI",
          "type": "string"
        }
      ],
      "name": "mint",
      "outputs": [
        {
          "internalType": "uint256",
          "name": "",
          "type": "uint256"
        }
      ],
      "stateMutability": "nonpayable",
      "type": "function"
    },
    {
      "inputs": [],
      "name": "name",
      "outputs": [
        {
          "internalType": "string",
          "name": "",
          "type": "string"
        }
      ],
      "stateMutability": "view",
      "type": "function"
    },
    {
      "inputs": [
        {
          "internalType": "uint256",
          "name": "tokenId",
          "type": "uint256"
        }
      ],
      "name": "ownerOf",
      "outputs": [
        {
          "internalType": "address",
          "name": "",
          "type": "address"
        }
      ],
      "stateMutability": "view",
      "type": "function"
    },
    {
      "inputs": [
        {
          "internalType": "bytes32",
          "name": "role",
          "type": "bytes32"
        },
        {
          "internalType": "address",
          "name": "callerConfirmation",
          "type": "address"
        }
      ],
      "name": "renounceRole",
      "outputs": [],
      "stateMutability": "nonpayable",
      "type": "function"
    },
    {
      "inputs": [
        {
          "internalType": "bytes32",
          "name": "role",
          "type": "bytes32"
        },
        {
          "internalType": "address",
          "name": "account",
          "type": "address"
        }
      ],
      "name": "revokeRole",
      "outputs": [],
      "stateMutability": "nonpayable",
      "type": "function"
    },
    {
      "inputs": [
        {
          "internalType": "address",
          "name": "from",
          "type": "address"
        },
        {
          "internalType": "address",
          "name": "to",
          "type": "address"
        },
        {
          "internalType": "uint256",
          "name": "tokenId",
          "type": "uint256"
        }
      ],
      "name": "safeTransferFrom",
      "outputs": [],
      "stateMutability": "nonpayable",
      "type": "function"
    },
    {
      "inputs": [
        {
          "internalType": "address",
          "name": "from",
          "type": "address"
        },
        {
          "internalType": "address",
          "name": "to",
          "type": "address"
        },
        {
          "internalType": "uint256",
          "name": "tokenId",
          "type": "uint256"
        },
        {
          "internalType": "bytes",
          "name": "data",
          "type": "bytes"
        }
      ],
      "name": "safeTransferFrom",
      "outputs": [],
      "stateMutability": "nonpayable",
      "type": "function"
    },
    {
      "inputs": [
        {
          "internalType": "address",
          "name": "operator",
          "type": "address"
        },
        {
          "internalType": "bool",
          "name": "approved",
          "type": "bool"
        }
      ],
      "name": "setApprovalForAll",
      "outputs": [],
      "stateMutability": "nonpayable",
      "type": "function"
    },
    {
      "inputs": [
        {
          "internalType": "string",
          "name": "_contractURI",
          "type": "string"
        }
      ],
      "name": "setContractBaseURI",
      "outputs": [
        {
          "internalType": "uint256",
          "name": "",
          "type": "uint256"
        }
      ],
      "stateMutability": "nonpayable",
      "type": "function"
    },
    {
      "inputs": [
        {
          "internalType": "uint256",
          "name": "_tokenId",
          "type": "uint256"
        },
        {
          "internalType": "string",
          "name": "_tokenURI",
          "type": "string"
        }
      ],
      "name": "setTokenURI",
      "outputs": [
        {
          "internalType": "uint256",
          "name": "",
          "type": "uint256"
        }
      ],
      "stateMutability": "nonpayable",
      "type": "function"
    },
    {
      "inputs": [
        {
          "internalType": "bytes4",
          "name": "interfaceId",
          "type": "bytes4"
        }
      ],
      "name": "supportsInterface",
      "outputs": [
        {
          "internalType": "bool",
          "name": "",
          "type": "bool"
        }
      ],
      "stateMutability": "view",
      "type": "function"
    },
    {
      "inputs": [],
      "name": "symbol",
      "outputs": [
        {
          "internalType": "string",
          "name": "",
          "type": "string"
        }
      ],
      "stateMutability": "view",
      "type": "function"
    },
    {
      "inputs": [
        {
          "internalType": "uint256",
          "name": "tokenId",
          "type": "uint256"
        }
      ],
      "name": "tokenURI",
      "outputs": [
        {
          "internalType": "string",
          "name": "",
          "type": "string"
        }
      ],
      "stateMutability": "view",
      "type": "function"
    },
    {
      "inputs": [],
      "name": "totalSupply",
      "outputs": [
        {
          "internalType": "uint256",
          "name": "",
          "type": "uint256"
        }
      ],
      "stateMutability": "view",
      "type": "function"
    },
    {
      "inputs": [
        {
          "internalType": "address",
          "name": "from",
          "type": "address"
        },
        {
          "internalType": "address",
          "name": "to",
          "type": "address"
        },
        {
          "internalType": "uint256",
          "name": "tokenId",
          "type": "uint256"
        }
      ],
      "name": "transferFrom",
      "outputs": [],
      "stateMutability": "nonpayable",
      "type": "function"
    }
  ],
  "bytecode": "0x60806040523480156200001157600080fd5b5060405162001eb338038062001eb38339810160408190526200003491620002f7565b8383600062000044838262000439565b50600162000053828262000439565b5060099150620000669050828262000439565b506200008260008051602062001e538339815191528062000134565b620000ac60008051602062001e7383398151915260008051602062001e5383398151915262000134565b620000d660008051602062001e9383398151915260008051602062001e5383398151915262000134565b620000f160008051602062001e53833981519152836200017f565b506200010d60008051602062001e73833981519152836200017f565b506200012960008051602062001e93833981519152836200017f565b505050505062000505565b600082815260076020526040808220600101805490849055905190918391839186917fbd79b86ffe0ab8e8776151514217cd7cacd52c909f66475c3af44e129f0b00ff9190a4505050565b60008281526007602090815260408083206001600160a01b038516845290915281205460ff16620002285760008381526007602090815260408083206001600160a01b03861684529091529020805460ff19166001179055620001df3390565b6001600160a01b0316826001600160a01b0316847f2f8788117e7eff1d82e926ec794901d17c78024a50270940304540a733656f0d60405160405180910390a45060016200022c565b5060005b92915050565b634e487b7160e01b600052604160045260246000fd5b600082601f8301126200025a57600080fd5b81516001600160401b038082111562000277576200027762000232565b604051601f8301601f19908116603f01168101908282118183101715620002a257620002a262000232565b81604052838152602092508683858801011115620002bf57600080fd5b600091505b83821015620002e35785820183015181830184015290820190620002c4565b600093810190920192909252949350505050565b600080600080608085870312156200030e57600080fd5b84516001600160401b03808211156200032657600080fd5b620003348883890162000248565b955060208701519150808211156200034b57600080fd5b620003598883890162000248565b604088015190955091506001600160a01b03821682146200037957600080fd5b6060870151919350808211156200038f57600080fd5b506200039e8782880162000248565b91505092959194509250565b600181811c90821680620003bf57607f821691505b602082108103620003e057634e487b7160e01b600052602260045260246000fd5b50919050565b601f8211156200043457600081815260208120601f850160051c810160208610156200040f5750805b601f850160051c820191505b8181101562000430578281556001016200041b565b5050505b505050565b81516001600160401b0381111562000455576200045562000232565b6200046d81620004668454620003aa565b84620003e6565b602080601f831160018114620004a557600084156200048c5750858301515b600019600386901b1c1916600185901b17855562000430565b600085815260208120601f198616915b82811015620004d657888601518255948401946001909101908401620004b5565b5085821015620004f55787850151600019600388901b60f8161c191681555b5050505050600190811b01905550565b61193e80620005156000396000f3fe608060405234801561001057600080fd5b50600436106101c45760003560e01c80636352211e116100f9578063be00f04f11610097578063d539139311610071578063d5391393146103de578063d547741f14610405578063e8a3d48514610418578063e985e9c51461042057600080fd5b8063be00f04f146103a5578063c87b56dd146103b8578063d0def521146103cb57600080fd5b806395d89b41116100d357806395d89b411461036f578063a217fddf14610377578063a22cb4651461037f578063b88d4fde1461039257600080fd5b80636352211e1461033657806370a082311461034957806391d148541461035c57600080fd5b806323b872dd116101665780632f2ff15d116101405780632f2ff15d146102f457806336568abe1461030757806342842e0e1461031a578063585698a91461032d57600080fd5b806323b872dd14610297578063248a9ca3146102aa5780632a0acc6a146102cd57600080fd5b8063095ea7b3116101a2578063095ea7b314610231578063117803e314610246578063162094c41461027b57806318160ddd1461028e57600080fd5b806301ffc9a7146101c957806306fdde03146101f1578063081812fc14610206575b600080fd5b6101dc6101d7366004611348565b610433565b60405190151581526020015b60405180910390f35b6101f9610444565b6040516101e891906113b5565b6102196102143660046113c8565b6104d6565b6040516001600160a01b0390911681526020016101e8565b61024461023f3660046113fd565b6104ff565b005b61026d7f6270edb7c868f86fda4adedba75108201087268ea345934db8bad688e1feb91b81565b6040519081526020016101e8565b61026d6102893660046114d3565b61050e565b61026d600a5481565b6102446102a536600461151a565b610554565b61026d6102b83660046113c8565b60009081526007602052604090206001015490565b61026d7fdf8b4c520ffe197c5343c6f5aec59570151ef9a492f2c624fd45ddde6135ec4281565b610244610302366004611556565b6105e4565b610244610315366004611556565b610609565b61024461032836600461151a565b610641565b61026d60085481565b6102196103443660046113c8565b61065c565b61026d610357366004611582565b610667565b6101dc61036a366004611556565b6106af565b6101f96106da565b61026d600081565b61024461038d36600461159d565b6106e9565b6102446103a03660046115d9565b6106f4565b61026d6103b3366004611655565b61070b565b6101f96103c63660046113c8565b610752565b61026d6103d936600461168a565b61075d565b61026d7f9f2df0fed2c77648de5860a4cc508cd0818c85b8b8a1ab4ceeef8d981c8956a681565b610244610413366004611556565b610801565b6101f9610826565b6101dc61042e3660046116c2565b6108b4565b600061043e826108e2565b92915050565b606060008054610453906116ec565b80601f016020809104026020016040519081016040528092919081815260200182805461047f906116ec565b80156104cc5780601f106104a1576101008083540402835291602001916104cc565b820191906000526020600020905b8154815290600101906020018083116104af57829003601f168201915b5050505050905090565b60006104e182610907565b506000828152600460205260409020546001600160a01b031661043e565b61050a828233610940565b5050565b600061053a7fdf8b4c520ffe197c5343c6f5aec59570151ef9a492f2c624fd45ddde6135ec42336106af565b61054357600080fd5b61054d838361094d565b5090919050565b6001600160a01b03821661058357604051633250574960e11b8152600060048201526024015b60405180910390fd5b600061059083833361099d565b9050836001600160a01b0316816001600160a01b0316146105de576040516364283d7b60e01b81526001600160a01b038086166004830152602482018490528216604482015260640161057a565b50505050565b6000828152600760205260409020600101546105ff81610a96565b6105de8383610aa3565b6001600160a01b03811633146106325760405163334bd91960e11b815260040160405180910390fd5b61063c8282610b37565b505050565b61063c838383604051806020016040528060008152506106f4565b600061043e82610907565b60006001600160a01b038216610693576040516322718ad960e21b81526000600482015260240161057a565b506001600160a01b031660009081526003602052604090205490565b60009182526007602090815260408084206001600160a01b0393909316845291905290205460ff1690565b606060018054610453906116ec565b61050a338383610ba4565b6106ff848484610554565b6105de84848484610c43565b60006107377fdf8b4c520ffe197c5343c6f5aec59570151ef9a492f2c624fd45ddde6135ec42336106af565b61074057600080fd5b600961074c838261176e565b50919050565b606061043e82610d6c565b60006107897f9f2df0fed2c77648de5860a4cc508cd0818c85b8b8a1ab4ceeef8d981c8956a6336106af565b61079257600080fd5b6000600a5460016107a3919061182e565b90506107af8482610e70565b6107b9818461094d565b600a8190556040517f1993dfefc1bf4e26e91fef3e3b84a7238ead5b2a7631feab1e5ac308a5ed2f27906107f29086908490879061184f565b60405180910390a19392505050565b60008281526007602052604090206001015461081c81610a96565b6105de8383610b37565b60098054610833906116ec565b80601f016020809104026020016040519081016040528092919081815260200182805461085f906116ec565b80156108ac5780601f10610881576101008083540402835291602001916108ac565b820191906000526020600020905b81548152906001019060200180831161088f57829003601f168201915b505050505081565b6001600160a01b03918216600090815260056020908152604080832093909416825291909152205460ff1690565b60006001600160e01b03198216637965db0b60e01b148061043e575061043e82610ed5565b6000818152600260205260408120546001600160a01b03168061043e57604051637e27328960e01b81526004810184905260240161057a565b61063c8383836001610efa565b6000828152600660205260409020610965828261176e565b506040518281527ff8e1a15aba9398e019f0b49df1a4fde98ee17ae345cb5f6b5e2c27f5033e8ce79060200160405180910390a15050565b6000828152600260205260408120546001600160a01b03908116908316156109ca576109ca818486611000565b6001600160a01b03811615610a08576109e7600085600080610efa565b6001600160a01b038116600090815260036020526040902080546000190190555b6001600160a01b03851615610a37576001600160a01b0385166000908152600360205260409020805460010190555b60008481526002602052604080822080546001600160a01b0319166001600160a01b0389811691821790925591518793918516917fddf252ad1be2c89b69c2b068fc378daa952ba7f163c4a11628f55a4df523b3ef91a4949350505050565b610aa08133611064565b50565b6000610aaf83836106af565b610b2f5760008381526007602090815260408083206001600160a01b03861684529091529020805460ff19166001179055610ae73390565b6001600160a01b0316826001600160a01b0316847f2f8788117e7eff1d82e926ec794901d17c78024a50270940304540a733656f0d60405160405180910390a450600161043e565b50600061043e565b6000610b4383836106af565b15610b2f5760008381526007602090815260408083206001600160a01b0386168085529252808320805460ff1916905551339286917ff6391f5c32d9c69d2a47ea670b442974b53935d1edc7fd64eb21e047a839171b9190a450600161043e565b6001600160a01b038216610bd657604051630b61174360e31b81526001600160a01b038316600482015260240161057a565b6001600160a01b03838116600081815260056020908152604080832094871680845294825291829020805460ff191686151590811790915591519182527f17307eab39ab6107e8899845ad3d59bd9653f200f220920489ca2b5937696c31910160405180910390a3505050565b6001600160a01b0383163b156105de57604051630a85bd0160e11b81526001600160a01b0384169063150b7a0290610c8590339088908790879060040161187f565b6020604051808303816000875af1925050508015610cc0575060408051601f3d908101601f19168201909252610cbd918101906118bc565b60015b610d29573d808015610cee576040519150601f19603f3d011682016040523d82523d6000602084013e610cf3565b606091505b508051600003610d2157604051633250574960e11b81526001600160a01b038516600482015260240161057a565b805181602001fd5b6001600160e01b03198116630a85bd0160e11b14610d6557604051633250574960e11b81526001600160a01b038516600482015260240161057a565b5050505050565b6060610d7782610907565b5060008281526006602052604081208054610d91906116ec565b80601f0160208091040260200160405190810160405280929190818152602001828054610dbd906116ec565b8015610e0a5780601f10610ddf57610100808354040283529160200191610e0a565b820191906000526020600020905b815481529060010190602001808311610ded57829003601f168201915b505050505090506000610e1b61109d565b90508051600003610e2d575092915050565b815115610e5f578082604051602001610e479291906118d9565b60405160208183030381529060405292505050919050565b610e68846110ac565b949350505050565b6001600160a01b038216610e9a57604051633250574960e11b81526000600482015260240161057a565b6000610ea88383600061099d565b90506001600160a01b0381161561063c576040516339e3563760e11b81526000600482015260240161057a565b60006001600160e01b03198216632483248360e11b148061043e575061043e82611114565b8080610f0e57506001600160a01b03821615155b15610fd0576000610f1e84610907565b90506001600160a01b03831615801590610f4a5750826001600160a01b0316816001600160a01b031614155b8015610f5d5750610f5b81846108b4565b155b15610f865760405163a9fbf51f60e01b81526001600160a01b038416600482015260240161057a565b8115610fce5783856001600160a01b0316826001600160a01b03167f8c5be1e5ebec7d5bd14f71427d1e84f3dd0314c0f7b2291e5b200ac8c7c3b92560405160405180910390a45b505b5050600090815260046020526040902080546001600160a01b0319166001600160a01b0392909216919091179055565b61100b838383611164565b61063c576001600160a01b03831661103957604051637e27328960e01b81526004810182905260240161057a565b60405163177e802f60e01b81526001600160a01b03831660048201526024810182905260440161057a565b61106e82826106af565b61050a5760405163e2517d3f60e01b81526001600160a01b03821660048201526024810183905260440161057a565b606060098054610453906116ec565b60606110b782610907565b5060006110c261109d565b905060008151116110e2576040518060200160405280600081525061110d565b806110ec846111c7565b6040516020016110fd9291906118d9565b6040516020818303038152906040525b9392505050565b60006001600160e01b031982166380ac58cd60e01b148061114557506001600160e01b03198216635b5e139f60e01b145b8061043e57506301ffc9a760e01b6001600160e01b031983161461043e565b60006001600160a01b03831615801590610e685750826001600160a01b0316846001600160a01b0316148061119e575061119e84846108b4565b80610e685750506000908152600460205260409020546001600160a01b03908116911614919050565b606060006111d48361125a565b600101905060008167ffffffffffffffff8111156111f4576111f4611427565b6040519080825280601f01601f19166020018201604052801561121e576020820181803683370190505b5090508181016020015b600019016f181899199a1a9b1b9c1cb0b131b232b360811b600a86061a8153600a850494508461122857509392505050565b60008072184f03e93ff9f4daa797ed6e38ed64bf6a1f0160401b83106112995772184f03e93ff9f4daa797ed6e38ed64bf6a1f0160401b830492506040015b6d04ee2d6d415b85acef810000000083106112c5576d04ee2d6d415b85acef8100000000830492506020015b662386f26fc1000083106112e357662386f26fc10000830492506010015b6305f5e10083106112fb576305f5e100830492506008015b612710831061130f57612710830492506004015b60648310611321576064830492506002015b600a831061043e5760010192915050565b6001600160e01b031981168114610aa057600080fd5b60006020828403121561135a57600080fd5b813561110d81611332565b60005b83811015611380578181015183820152602001611368565b50506000910152565b600081518084526113a1816020860160208601611365565b601f01601f19169290920160200192915050565b60208152600061110d6020830184611389565b6000602082840312156113da57600080fd5b5035919050565b80356001600160a01b03811681146113f857600080fd5b919050565b6000806040838503121561141057600080fd5b611419836113e1565b946020939093013593505050565b634e487b7160e01b600052604160045260246000fd5b600067ffffffffffffffff8084111561145857611458611427565b604051601f8501601f19908116603f0116810190828211818310171561148057611480611427565b8160405280935085815286868601111561149957600080fd5b858560208301376000602087830101525050509392505050565b600082601f8301126114c457600080fd5b61110d8383356020850161143d565b600080604083850312156114e657600080fd5b82359150602083013567ffffffffffffffff81111561150457600080fd5b611510858286016114b3565b9150509250929050565b60008060006060848603121561152f57600080fd5b611538846113e1565b9250611546602085016113e1565b9150604084013590509250925092565b6000806040838503121561156957600080fd5b82359150611579602084016113e1565b90509250929050565b60006020828403121561159457600080fd5b61110d826113e1565b600080604083850312156115b057600080fd5b6115b9836113e1565b9150602083013580151581146115ce57600080fd5b809150509250929050565b600080600080608085870312156115ef57600080fd5b6115f8856113e1565b9350611606602086016113e1565b925060408501359150606085013567ffffffffffffffff81111561162957600080fd5b8501601f8101871361163a57600080fd5b6116498782356020840161143d565b91505092959194509250565b60006020828403121561166757600080fd5b813567ffffffffffffffff81111561167e57600080fd5b610e68848285016114b3565b6000806040838503121561169d57600080fd5b6116a6836113e1565b9150602083013567ffffffffffffffff81111561150457600080fd5b600080604083850312156116d557600080fd5b6116de836113e1565b9150611579602084016113e1565b600181811c9082168061170057607f821691505b60208210810361074c57634e487b7160e01b600052602260045260246000fd5b601f82111561063c57600081815260208120601f850160051c810160208610156117475750805b601f850160051c820191505b8181101561176657828155600101611753565b505050505050565b815167ffffffffffffffff81111561178857611788611427565b61179c8161179684546116ec565b84611720565b602080601f8311600181146117d157600084156117b95750858301515b600019600386901b1c1916600185901b178555611766565b600085815260208120601f198616915b82811015611800578886015182559484019460019091019084016117e1565b508582101561181e5787850151600019600388901b60f8161c191681555b5050505050600190811b01905550565b8082018082111561043e57634e487b7160e01b600052601160045260246000fd5b60018060a01b03841681528260208201526060604082015260006118766060830184611389565b95945050505050565b6001600160a01b03858116825284166020820152604081018390526080606082018190526000906118b290830184611389565b9695505050505050565b6000602082840312156118ce57600080fd5b815161110d81611332565b600083516118eb818460208801611365565b8351908301906118ff818360208801611365565b0194935050505056fea2646970667358221220e95ff50211798ac60d679cec75a2cbd545c3d6e3527e8dc1ed9563e1140dac7764736f6c63430008140033df8b4c520ffe197c5343c6f5aec59570151ef9a492f2c624fd45ddde6135ec429f2df0fed2c77648de5860a4cc508cd0818c85b8b8a1ab4ceeef8d981c8956a66270edb7c868f86fda4adedba75108201087268ea345934db8bad688e1feb91b",
  "linkReferences": {},
  "deployedLinkReferences": {}
}