{
    "_format": "hh-sol-artifact-1",
    "contractName": "TokenBasic",
    "sourceName": "contracts/TokenBasic.sol",
    "abi": [
        {
            "inputs": [
                {
                    "internalType": "string",
                    "name": "_name",
                    "type": "string"
                },
                {
                    "internalType": "string",
                    "name": "_symbol",
                    "type": "string"
                },
                {
                    "internalType": "address",
                    "name": "_deployer",
                    "type": "address"
                }
            ],
            "stateMutability": "nonpayable",
            "type": "constructor"
        },
        {
            "inputs": [],
            "name": "AccessControlBadConfirmation",
            "type": "error"
        },
        {
            "inputs": [
                {
                    "internalType": "address",
                    "name": "account",
                    "type": "address"
                },
                {
                    "internalType": "bytes32",
                    "name": "neededRole",
                    "type": "bytes32"
                }
            ],
            "name": "AccessControlUnauthorizedAccount",
            "type": "error"
        },
        {
            "inputs": [
                {
                    "internalType": "address",
                    "name": "spender",
                    "type": "address"
                },
                {
                    "internalType": "uint256",
                    "name": "allowance",
                    "type": "uint256"
                },
                {
                    "internalType": "uint256",
                    "name": "needed",
                    "type": "uint256"
                }
            ],
            "name": "ERC20InsufficientAllowance",
            "type": "error"
        },
        {
            "inputs": [
                {
                    "internalType": "address",
                    "name": "sender",
                    "type": "address"
                },
                {
                    "internalType": "uint256",
                    "name": "balance",
                    "type": "uint256"
                },
                {
                    "internalType": "uint256",
                    "name": "needed",
                    "type": "uint256"
                }
            ],
            "name": "ERC20InsufficientBalance",
            "type": "error"
        },
        {
            "inputs": [
                {
                    "internalType": "address",
                    "name": "approver",
                    "type": "address"
                }
            ],
            "name": "ERC20InvalidApprover",
            "type": "error"
        },
        {
            "inputs": [
                {
                    "internalType": "address",
                    "name": "receiver",
                    "type": "address"
                }
            ],
            "name": "ERC20InvalidReceiver",
            "type": "error"
        },
        {
            "inputs": [
                {
                    "internalType": "address",
                    "name": "sender",
                    "type": "address"
                }
            ],
            "name": "ERC20InvalidSender",
            "type": "error"
        },
        {
            "inputs": [
                {
                    "internalType": "address",
                    "name": "spender",
                    "type": "address"
                }
            ],
            "name": "ERC20InvalidSpender",
            "type": "error"
        },
        {
            "anonymous": false,
            "inputs": [
                {
                    "indexed": true,
                    "internalType": "address",
                    "name": "owner",
                    "type": "address"
                },
                {
                    "indexed": true,
                    "internalType": "address",
                    "name": "spender",
                    "type": "address"
                },
                {
                    "indexed": false,
                    "internalType": "uint256",
                    "name": "value",
                    "type": "uint256"
                }
            ],
            "name": "Approval",
            "type": "event"
        },
        {
            "anonymous": false,
            "inputs": [
                {
                    "indexed": true,
                    "internalType": "bytes32",
                    "name": "role",
                    "type": "bytes32"
                },
                {
                    "indexed": true,
                    "internalType": "bytes32",
                    "name": "previousAdminRole",
                    "type": "bytes32"
                },
                {
                    "indexed": true,
                    "internalType": "bytes32",
                    "name": "newAdminRole",
                    "type": "bytes32"
                }
            ],
            "name": "RoleAdminChanged",
            "type": "event"
        },
        {
            "anonymous": false,
            "inputs": [
                {
                    "indexed": true,
                    "internalType": "bytes32",
                    "name": "role",
                    "type": "bytes32"
                },
                {
                    "indexed": true,
                    "internalType": "address",
                    "name": "account",
                    "type": "address"
                },
                {
                    "indexed": true,
                    "internalType": "address",
                    "name": "sender",
                    "type": "address"
                }
            ],
            "name": "RoleGranted",
            "type": "event"
        },
        {
            "anonymous": false,
            "inputs": [
                {
                    "indexed": true,
                    "internalType": "bytes32",
                    "name": "role",
                    "type": "bytes32"
                },
                {
                    "indexed": true,
                    "internalType": "address",
                    "name": "account",
                    "type": "address"
                },
                {
                    "indexed": true,
                    "internalType": "address",
                    "name": "sender",
                    "type": "address"
                }
            ],
            "name": "RoleRevoked",
            "type": "event"
        },
        {
            "anonymous": false,
            "inputs": [
                {
                    "indexed": true,
                    "internalType": "address",
                    "name": "from",
                    "type": "address"
                },
                {
                    "indexed": true,
                    "internalType": "address",
                    "name": "to",
                    "type": "address"
                },
                {
                    "indexed": false,
                    "internalType": "uint256",
                    "name": "value",
                    "type": "uint256"
                }
            ],
            "name": "Transfer",
            "type": "event"
        },
        {
            "inputs": [],
            "name": "ADMIN",
            "outputs": [
                {
                    "internalType": "bytes32",
                    "name": "",
                    "type": "bytes32"
                }
            ],
            "stateMutability": "view",
            "type": "function"
        },
        {
            "inputs": [],
            "name": "DEFAULT_ADMIN_ROLE",
            "outputs": [
                {
                    "internalType": "bytes32",
                    "name": "",
                    "type": "bytes32"
                }
            ],
            "stateMutability": "view",
            "type": "function"
        },
        {
            "inputs": [],
            "name": "MINTER_ROLE",
            "outputs": [
                {
                    "internalType": "bytes32",
                    "name": "",
                    "type": "bytes32"
                }
            ],
            "stateMutability": "view",
            "type": "function"
        },
        {
            "inputs": [],
            "name": "OWNER",
            "outputs": [
                {
                    "internalType": "bytes32",
                    "name": "",
                    "type": "bytes32"
                }
            ],
            "stateMutability": "view",
            "type": "function"
        },
        {
            "inputs": [
                {
                    "internalType": "address",
                    "name": "owner",
                    "type": "address"
                },
                {
                    "internalType": "address",
                    "name": "spender",
                    "type": "address"
                }
            ],
            "name": "allowance",
            "outputs": [
                {
                    "internalType": "uint256",
                    "name": "",
                    "type": "uint256"
                }
            ],
            "stateMutability": "view",
            "type": "function"
        },
        {
            "inputs": [
                {
                    "internalType": "address",
                    "name": "spender",
                    "type": "address"
                },
                {
                    "internalType": "uint256",
                    "name": "value",
                    "type": "uint256"
                }
            ],
            "name": "approve",
            "outputs": [
                {
                    "internalType": "bool",
                    "name": "",
                    "type": "bool"
                }
            ],
            "stateMutability": "nonpayable",
            "type": "function"
        },
        {
            "inputs": [
                {
                    "internalType": "address",
                    "name": "account",
                    "type": "address"
                }
            ],
            "name": "balanceOf",
            "outputs": [
                {
                    "internalType": "uint256",
                    "name": "",
                    "type": "uint256"
                }
            ],
            "stateMutability": "view",
            "type": "function"
        },
        {
            "inputs": [],
            "name": "decimals",
            "outputs": [
                {
                    "internalType": "uint8",
                    "name": "",
                    "type": "uint8"
                }
            ],
            "stateMutability": "view",
            "type": "function"
        },
        {
            "inputs": [
                {
                    "internalType": "bytes32",
                    "name": "role",
                    "type": "bytes32"
                }
            ],
            "name": "getRoleAdmin",
            "outputs": [
                {
                    "internalType": "bytes32",
                    "name": "",
                    "type": "bytes32"
                }
            ],
            "stateMutability": "view",
            "type": "function"
        },
        {
            "inputs": [
                {
                    "internalType": "bytes32",
                    "name": "role",
                    "type": "bytes32"
                },
                {
                    "internalType": "address",
                    "name": "account",
                    "type": "address"
                }
            ],
            "name": "grantRole",
            "outputs": [],
            "stateMutability": "nonpayable",
            "type": "function"
        },
        {
            "inputs": [
                {
                    "internalType": "bytes32",
                    "name": "role",
                    "type": "bytes32"
                },
                {
                    "internalType": "address",
                    "name": "account",
                    "type": "address"
                }
            ],
            "name": "hasRole",
            "outputs": [
                {
                    "internalType": "bool",
                    "name": "",
                    "type": "bool"
                }
            ],
            "stateMutability": "view",
            "type": "function"
        },
        {
            "inputs": [],
            "name": "name",
            "outputs": [
                {
                    "internalType": "string",
                    "name": "",
                    "type": "string"
                }
            ],
            "stateMutability": "view",
            "type": "function"
        },
        {
            "inputs": [
                {
                    "internalType": "address",
                    "name": "_address",
                    "type": "address"
                }
            ],
            "name": "removeWhitelistAddress",
            "outputs": [],
            "stateMutability": "nonpayable",
            "type": "function"
        },
        {
            "inputs": [
                {
                    "internalType": "bytes32",
                    "name": "role",
                    "type": "bytes32"
                },
                {
                    "internalType": "address",
                    "name": "callerConfirmation",
                    "type": "address"
                }
            ],
            "name": "renounceRole",
            "outputs": [],
            "stateMutability": "nonpayable",
            "type": "function"
        },
        {
            "inputs": [
                {
                    "internalType": "bytes32",
                    "name": "role",
                    "type": "bytes32"
                },
                {
                    "internalType": "address",
                    "name": "account",
                    "type": "address"
                }
            ],
            "name": "revokeRole",
            "outputs": [],
            "stateMutability": "nonpayable",
            "type": "function"
        },
        {
            "inputs": [
                {
                    "internalType": "bytes4",
                    "name": "interfaceId",
                    "type": "bytes4"
                }
            ],
            "name": "supportsInterface",
            "outputs": [
                {
                    "internalType": "bool",
                    "name": "",
                    "type": "bool"
                }
            ],
            "stateMutability": "view",
            "type": "function"
        },
        {
            "inputs": [],
            "name": "symbol",
            "outputs": [
                {
                    "internalType": "string",
                    "name": "",
                    "type": "string"
                }
            ],
            "stateMutability": "view",
            "type": "function"
        },
        {
            "inputs": [],
            "name": "totalSupply",
            "outputs": [
                {
                    "internalType": "uint256",
                    "name": "",
                    "type": "uint256"
                }
            ],
            "stateMutability": "view",
            "type": "function"
        },
        {
            "inputs": [
                {
                    "internalType": "address",
                    "name": "to",
                    "type": "address"
                },
                {
                    "internalType": "uint256",
                    "name": "value",
                    "type": "uint256"
                }
            ],
            "name": "transfer",
            "outputs": [
                {
                    "internalType": "bool",
                    "name": "",
                    "type": "bool"
                }
            ],
            "stateMutability": "nonpayable",
            "type": "function"
        },
        {
            "inputs": [
                {
                    "internalType": "address",
                    "name": "from",
                    "type": "address"
                },
                {
                    "internalType": "address",
                    "name": "to",
                    "type": "address"
                },
                {
                    "internalType": "uint256",
                    "name": "value",
                    "type": "uint256"
                }
            ],
            "name": "transferFrom",
            "outputs": [
                {
                    "internalType": "bool",
                    "name": "",
                    "type": "bool"
                }
            ],
            "stateMutability": "nonpayable",
            "type": "function"
        },
        {
            "inputs": [
                {
                    "internalType": "address",
                    "name": "_address",
                    "type": "address"
                }
            ],
            "name": "whitelistAddress",
            "outputs": [],
            "stateMutability": "nonpayable",
            "type": "function"
        },
        {
            "inputs": [
                {
                    "internalType": "address",
                    "name": "",
                    "type": "address"
                }
            ],
            "name": "whitelistedAddresses",
            "outputs": [
                {
                    "internalType": "bool",
                    "name": "",
                    "type": "bool"
                }
            ],
            "stateMutability": "view",
            "type": "function"
        },
        {
            "inputs": [],
            "name": "withdrawEth",
            "outputs": [],
            "stateMutability": "nonpayable",
            "type": "function"
        }
    ],
    "bytecode": "0x608060405234801562000010575f80fd5b506040516200120a3803806200120a83398101604081905262000033916200036e565b8282600362000043838262000481565b50600462000052828262000481565b505050620000755f80516020620011aa833981519152806200011c60201b60201c565b6200009d5f80516020620011ca8339815191525f80516020620011aa8339815191526200011c565b620000c55f80516020620011ea8339815191525f80516020620011aa8339815191526200011c565b620000df5f80516020620011aa8339815191528262000166565b620000f95f80516020620011ca8339815191528262000166565b620001135f80516020620011ea8339815191528262000166565b50505062000549565b5f82815260056020526040808220600101805490849055905190918391839186917fbd79b86ffe0ab8e8776151514217cd7cacd52c909f66475c3af44e129f0b00ff9190a4505050565b5f82815260056020526040902060010154620001828162000194565b6200018e8383620001a3565b50505050565b620001a0813362000253565b50565b5f8281526005602090815260408083206001600160a01b038516845290915281205460ff166200024a575f8381526005602090815260408083206001600160a01b03861684529091529020805460ff19166001179055620002013390565b6001600160a01b0316826001600160a01b0316847f2f8788117e7eff1d82e926ec794901d17c78024a50270940304540a733656f0d60405160405180910390a45060016200024d565b505f5b92915050565b5f8281526005602090815260408083206001600160a01b038516845290915290205460ff16620002ac5760405163e2517d3f60e01b81526001600160a01b03821660048201526024810183905260440160405180910390fd5b5050565b634e487b7160e01b5f52604160045260245ffd5b5f82601f830112620002d4575f80fd5b81516001600160401b0380821115620002f157620002f1620002b0565b604051601f8301601f19908116603f011681019082821181831017156200031c576200031c620002b0565b8160405283815260209250868385880101111562000338575f80fd5b5f91505b838210156200035b57858201830151818301840152908201906200033c565b5f93810190920192909252949350505050565b5f805f6060848603121562000381575f80fd5b83516001600160401b038082111562000398575f80fd5b620003a687838801620002c4565b94506020860151915080821115620003bc575f80fd5b50620003cb86828701620002c4565b604086015190935090506001600160a01b0381168114620003ea575f80fd5b809150509250925092565b600181811c908216806200040a57607f821691505b6020821081036200042957634e487b7160e01b5f52602260045260245ffd5b50919050565b601f8211156200047c575f81815260208120601f850160051c81016020861015620004575750805b601f850160051c820191505b81811015620004785782815560010162000463565b5050505b505050565b81516001600160401b038111156200049d576200049d620002b0565b620004b581620004ae8454620003f5565b846200042f565b602080601f831160018114620004eb575f8415620004d35750858301515b5f19600386901b1c1916600185901b17855562000478565b5f85815260208120601f198616915b828110156200051b57888601518255948401946001909101908401620004fa565b50858210156200053957878501515f19600388901b60f8161c191681555b5050505050600190811b01905550565b610c5380620005575f395ff3fe608060405234801561000f575f80fd5b5060043610610148575f3560e01c806336568abe116100bf578063a217fddf11610079578063a217fddf146102d9578063a9059cbb146102e0578063b7ecbaae146102f3578063d539139314610306578063d547741f1461032d578063dd62ed3e14610340575f80fd5b806336568abe14610268578063415665851461027b57806370a082311461028e57806391d14854146102b657806395d89b41146102c9578063a0ef91df146102d1575f80fd5b806318160ddd1161011057806318160ddd146101f357806323b872dd146101fb578063248a9ca31461020e5780632a0acc6a146102305780632f2ff15d14610244578063313ce56714610259575f80fd5b806301ffc9a71461014c57806306c933d81461017457806306fdde0314610196578063095ea7b3146101ab578063117803e3146101be575b5f80fd5b61015f61015a366004610a2f565b610378565b60405190151581526020015b60405180910390f35b61015f610182366004610a78565b60066020525f908152604090205460ff1681565b61019e6103ae565b60405161016b9190610a91565b61015f6101b9366004610adc565b61043e565b6101e57f6270edb7c868f86fda4adedba75108201087268ea345934db8bad688e1feb91b81565b60405190815260200161016b565b6002546101e5565b61015f610209366004610b04565b610455565b6101e561021c366004610b3d565b5f9081526005602052604090206001015490565b6101e55f80516020610bfe83398151915281565b610257610252366004610b54565b610478565b005b6040516012815260200161016b565b610257610276366004610b54565b6104a2565b610257610289366004610a78565b6104da565b6101e561029c366004610a78565b6001600160a01b03165f9081526020819052604090205490565b61015f6102c4366004610b54565b61051c565b61019e610546565b610257610555565b6101e55f81565b61015f6102ee366004610adc565b6105a0565b610257610301366004610a78565b6105ad565b6101e57f9f2df0fed2c77648de5860a4cc508cd0818c85b8b8a1ab4ceeef8d981c8956a681565b61025761033b366004610b54565b6105ec565b6101e561034e366004610b7e565b6001600160a01b039182165f90815260016020908152604080832093909416825291909152205490565b5f6001600160e01b03198216637965db0b60e01b14806103a857506301ffc9a760e01b6001600160e01b03198316145b92915050565b6060600380546103bd90610ba6565b80601f01602080910402602001604051908101604052809291908181526020018280546103e990610ba6565b80156104345780601f1061040b57610100808354040283529160200191610434565b820191905f5260205f20905b81548152906001019060200180831161041757829003601f168201915b5050505050905090565b5f3361044b818585610610565b5060019392505050565b5f3361046285828561061d565b61046d858585610697565b506001949350505050565b5f82815260056020526040902060010154610492816106f4565b61049c83836106fe565b50505050565b6001600160a01b03811633146104cb5760405163334bd91960e11b815260040160405180910390fd5b6104d5828261078f565b505050565b6104f15f80516020610bfe8339815191523361051c565b6104f9575f80fd5b6001600160a01b03165f908152600660205260409020805460ff19166001179055565b5f9182526005602090815260408084206001600160a01b0393909316845291905290205460ff1690565b6060600480546103bd90610ba6565b61056c5f80516020610bfe8339815191523361051c565b610574575f80fd5b60405133904780156108fc02915f818181858888f1935050505015801561059d573d5f803e3d5ffd5b50565b5f3361044b818585610697565b6105c45f80516020610bfe8339815191523361051c565b6105cc575f80fd5b6001600160a01b03165f908152600660205260409020805460ff19169055565b5f82815260056020526040902060010154610606816106f4565b61049c838361078f565b6104d583838360016107fa565b6001600160a01b038381165f908152600160209081526040808320938616835292905220545f19811461049c578181101561068957604051637dc7a0d960e11b81526001600160a01b038416600482015260248101829052604481018390526064015b60405180910390fd5b61049c84848484035f6107fa565b6001600160a01b0383166106c057604051634b637e8f60e11b81525f6004820152602401610680565b6001600160a01b0382166106e95760405163ec442f0560e01b81525f6004820152602401610680565b6104d58383836108cc565b61059d81336109f2565b5f610709838361051c565b610788575f8381526005602090815260408083206001600160a01b03861684529091529020805460ff191660011790556107403390565b6001600160a01b0316826001600160a01b0316847f2f8788117e7eff1d82e926ec794901d17c78024a50270940304540a733656f0d60405160405180910390a45060016103a8565b505f6103a8565b5f61079a838361051c565b15610788575f8381526005602090815260408083206001600160a01b0386168085529252808320805460ff1916905551339286917ff6391f5c32d9c69d2a47ea670b442974b53935d1edc7fd64eb21e047a839171b9190a45060016103a8565b6001600160a01b0384166108235760405163e602df0560e01b81525f6004820152602401610680565b6001600160a01b03831661084c57604051634a1406b160e11b81525f6004820152602401610680565b6001600160a01b038085165f908152600160209081526040808320938716835292905220829055801561049c57826001600160a01b0316846001600160a01b03167f8c5be1e5ebec7d5bd14f71427d1e84f3dd0314c0f7b2291e5b200ac8c7c3b925846040516108be91815260200190565b60405180910390a350505050565b6001600160a01b0383166108f6578060025f8282546108eb9190610bde565b909155506109669050565b6001600160a01b0383165f90815260208190526040902054818110156109485760405163391434e360e21b81526001600160a01b03851660048201526024810182905260448101839052606401610680565b6001600160a01b0384165f9081526020819052604090209082900390555b6001600160a01b038216610982576002805482900390556109a0565b6001600160a01b0382165f9081526020819052604090208054820190555b816001600160a01b0316836001600160a01b03167fddf252ad1be2c89b69c2b068fc378daa952ba7f163c4a11628f55a4df523b3ef836040516109e591815260200190565b60405180910390a3505050565b6109fc828261051c565b610a2b5760405163e2517d3f60e01b81526001600160a01b038216600482015260248101839052604401610680565b5050565b5f60208284031215610a3f575f80fd5b81356001600160e01b031981168114610a56575f80fd5b9392505050565b80356001600160a01b0381168114610a73575f80fd5b919050565b5f60208284031215610a88575f80fd5b610a5682610a5d565b5f6020808352835180828501525f5b81811015610abc57858101830151858201604001528201610aa0565b505f604082860101526040601f19601f8301168501019250505092915050565b5f8060408385031215610aed575f80fd5b610af683610a5d565b946020939093013593505050565b5f805f60608486031215610b16575f80fd5b610b1f84610a5d565b9250610b2d60208501610a5d565b9150604084013590509250925092565b5f60208284031215610b4d575f80fd5b5035919050565b5f8060408385031215610b65575f80fd5b82359150610b7560208401610a5d565b90509250929050565b5f8060408385031215610b8f575f80fd5b610b9883610a5d565b9150610b7560208401610a5d565b600181811c90821680610bba57607f821691505b602082108103610bd857634e487b7160e01b5f52602260045260245ffd5b50919050565b808201808211156103a857634e487b7160e01b5f52601160045260245ffdfedf8b4c520ffe197c5343c6f5aec59570151ef9a492f2c624fd45ddde6135ec42a26469706673582212203d9a4f2c34f1b0d439e11acff3e4986c749160371a7563be163029079813c22064736f6c63430008140033df8b4c520ffe197c5343c6f5aec59570151ef9a492f2c624fd45ddde6135ec429f2df0fed2c77648de5860a4cc508cd0818c85b8b8a1ab4ceeef8d981c8956a66270edb7c868f86fda4adedba75108201087268ea345934db8bad688e1feb91b",
    "linkReferences": {},
    "deployedLinkReferences": {}
}